:10000000E01F0910A9130000A5130000110700004C
:10001000310700003507000039070000000000002C
:10002000000000000000000000000000A513000018
:10003000A513000000000000A5130000A513000098
:10004000A11300005D020000090200000000000092
:10005000A1130000A1130000A1130000A1130000D0
:10006000A1130000A1130000A1130000A1130000C0
:10007000A1130000A1130000A1130000A1130000B0
:10008000A1130000A1130000A1130000A1130000A0
:10009000A1130000A1130000A1130000A113000090
:1000A000A1130000A1130000A1130000A113000080
:1000B000A1130000A1130000A1130000A113000070
:1000C000A1130000A1130000A1130000A113000060
:1000D000A1130000A1130000A1130000A113000050
:1000E000A1130000A1130000A1130000A113000040
:1000F00000000000A1130000A1130000A1130000E4
:1001000000000000A1130000A1130000A1130000D3
:10011000A1130000074B1B6830B1074A01214FF4BF
:10012000C05011601860704703494FF48042086066
:100130001A6070470C0008102800081038B50546F2
:1001400072B6264C2368002B3FD043F6FC734BF667
:10015000FC74C2F200030020C2F200041A1D5860B1
:100160000833A3425060F9D11D4C216811BB1D4BCF
:1001700018684FF4804202601B481C490268002343
:100180000B60136000F084FA284600F0B1FA226890
:100190004FF48040C2F20000D1B200F0E9F900F063
:1001A0002FFE0020C4F20F0001230361BFF34F8F25
:1001B00062B638BD0B490E4B08681B684FF40052FD
:1001C0004FF4804102601960D6E70A480068303079
:1001D00000F0DAFD01212160B7E700BF3800081008
:1001E000280008100800081010000810200008104F
:1001F000340008101800081008B572B600F03CFA78
:1002000000F006FE62B608BD4FF40053C4F20003CE
:100210005A68D20711D5986840F0010199600C4BDB
:100220001A685AB90B4801680B6803F580425004FC
:10023000430C0B60BFF34F8F40BF704706490A68FD
:10024000106800F500535904480C1060704700BF57
:10025000280008100800081034000810F8B54FF402
:100260005052264CC4F204022368002111605D78CC
:100270001A78012AE9B226D0214D2A6850781378DD
:10028000012B34D01F4D2B681C78012C02D0022C7E
:100290000DD0F8BD1C4F3E6836B93046FFF74EFF13
:1002A0001A482B683C60066000221A60F8BD174EA1
:1002B0003468002CF8D1FFF79FFF13492B68012207
:1002C00032600C60F0E7124A6DB21368002DBABFBD
:1002D00001F07F01D3F88000986F01EB410100EB42
:1002E000C10000F02BFA206800240460C4E7FFF787
:1002F00011FF296800200860C4E700BF0000081053
:100300001400081004000810240008103000081021
:100310001800081070B500F0EFFF144B144A1C6869
:10032000A41894421CD91346D04353F8045B1149D6
:1003300020189C420D60C0F3800011D930B11868BC
:1003400002F108039C4241F8040F09D91A465E687D
:1003500052F8045B8E60131D4D6008319C42F5D845
:100360000448BDE8704000F0E1BF00BF804B0000D2
:10037000501C000000C000204EF6FC52CEF20002DD
:100380004FF4805311682DE9F04FCEF2000341F095
:10039000807010601C68DFF880B144F0010585B002
:1003A0001D6000F057FD00F043FA0220FF2101F02C
:1003B00053F90120014601F04FF9DBF80060002EEF
:1003C00000F08D804A4C4B480394039E05683768C3
:1003D00002904FF400524FF480432A603B6046493C
:1003E000DFF838C10D68454F0024CCF800400220EA
:1003F0002C60CDF804C001F021F9012001F01EF9B4
:10040000FFF7FAFE3E483F4906683F4D3A684FF411
:10041000804001230B602C60CBF8004030603B4EE5
:10042000146037683A4A3C6013681C6041F21074EB
:10043000C4F20504FFF76EFF00F098FF2568354908
:10044000039EDDF804C025F0010020600C463160F9
:1004500020BFDBF80070002FFAD0D4F800E0DCF801
:1004600000309E45F4D00EF1005202F58040014666
:100470004FF48052B0E8F0004FEA1448C5F30B1374
:1004800043EA082848EA04582B0C2D0745EA03459F
:1004900045EA16651FFA86F945EA0919360C1FFA6E
:1004A00087FA4FEA0A3A4AEA066A4AEA174AA1E88C
:1004B0000007083ADED1029C21680D6805F500505E
:1004C0004604770C0F60BFF34F8F40BF40F220030C
:1004D000C1F20803039AC3F800E01468B8E7054FB7
:1004E000034A3B6802974FF480410392196076E714
:1004F000340008100800081010000810040008104C
:100500000C0008103000081024000810000008102B
:10051000140008102C0008102800081020000810F3
:100520004FF40052C4F2000243F21C13C4F204035D
:10053000012090601061196821F440411960196828
:1005400041F440411960196821F44031196019687B
:1005500041F440311960114610630A6B4FF40053A7
:10056000D207C4F20003F8D500201863704700BF1B
:100570002DE9F84304460E46FFF7D2FF234B4FF414
:100580000072C4F20F024FF4205003F11005C0F6C0
:10059000493004F5005903F1200804F5804C03F1BB
:1005A000300704F5C04183E834001A611A621A6307
:1005B0004FF42052D860C3F81490C3F81880C3F8E1
:1005C00024C09F62D86259639B63C8F64932D6B192
:1005D000DA60DA61DA62DA634FF400501968C4F263
:1005E0000000C0F800115A68C0F80421DB684DF221
:1005F00011010122C0F80C31C0F80851C0F81011E7
:100600000263BDE8F883DA61DA63E5E740000810C9
:1006100043F20413C4F2050343F254124FF0805125
:100620001960C4F205021068C100FCD50023C4F2B1
:100630000F037F22C3F8002F1946C3F8102FD1F8FB
:100640000C0F002310F07D0FC4F20F03F7D16FF0F1
:100650006042C3F8202F1946C3F8302FD1F82C0F71
:100660000023C4F20F030028F8D101221121986160
:100670001A60D960704700BF08B5FFF751FFFFF758
:10068000C7FF0023C4F20F030022C3F8082108BDEE
:1006900008B5FFF7BDFF0023C4F20F034FF48262D9
:1006A000C0F2060242F20141D961C3F808210022DA
:1006B000C3F804210122052019461A608A68002324
:1006C000C4F20F03002AF9D10138F7D14FF4704278
:1006D000C0F2FF027F206FF060411A625A62C3F8D5
:1006E000000FC3F8100FC3F8201FC3F8301F08BD58
:1006F0000023C4F20F0340F0014040F4C072012116
:1007000040F040005961C3F82023C3F8000370474C
:100710001EF0040F0CBFEFF30880EFF3098000F028
:1007200001B800BF014B186000BEFEE78000081052
:10073000FEE700BFFEE700BFFEE700BFF0B490E8B1
:10074000E0008C2230244C21C4F20502C4F20504DE
:10075000C4F205010123136023600B600DB9002E64
:1007600032D03020C4F2050040F60101C0F2004151
:100770002C220160C4F205021368D907FCD434208E
:100780003821C4F20500C4F205013023C4F2050388
:1007900005600E601A6847EA020040F4005141F01B
:1007A00011021A6018682C2220F001011960C4F2AD
:1007B00005021368DB07FCD58C20C4F205004FF05E
:1007C00008220260F0BC7047037B2BB94FF4006134
:1007D000C0F200411160F5E7980040F080604FF4EE
:1007E00000631843C0F6005308601360EAE700BFD7
:1007F0004421C4F2050170B44CF63C430E68056810
:1008000082684468CEF20003334043EA052040F09A
:10081000806343F0C00040EA043343EA02404022D0
:100820000860C4F205021168C807FCD570BC7047A7
:100830001822C4F205022DE9F04F116821F00400DE
:100840001060146824F0010595B042F2107615602E
:1008500000BF731E00BF5E1EFAD16C276424802186
:100860008422C4F20501C4F20502C4F20507C4F2F1
:1008700005044FF40065C0F200653D60102025605E
:100880000D60214C156000F059FC00F0C3FB1F4FB8
:100890002368D919002800F0ED811D4E8B4246F0E7
:1008A0000046184680F03B821A1A915D03F8011B3E
:1008B0002568EA199342F7D3D5F89C30B5F874103F
:1008C0002B65B5F876E0B5F87E70B5F87C606868A1
:1008D0000023C8F2020305F18C020EFB012107FB85
:1008E0000616D3F808801F68AA678307C5F880102A
:1008F000C5F8886000F1CD810122CCF61B22974219
:1009000000F0F88106E000BF18000810000C00009D
:10091000DC50000005F13C00FFF76AFF2668308BD1
:1009200000F00CFC2068808B00F028FC4FF06C0974
:100930004FF0640C802784262021C4F205094FF46F
:100940000063C4F2050CC4F20507C4F20506C4F244
:10095000050140F60100C0F60013C0F200401C2261
:10096000C9F80030C4F20502CCF800303B603360B7
:1009700008601768FE07FCD42426696AC4F20506DD
:1009800028203160AA6AC4F205002023C4F20503BE
:1009900002601F68ED6A47EA050646F0110119601A
:1009A00018681C2220F001071F60C4F205021368BA
:1009B000DD07FCD56025C4F205054FF4006643F25F
:1009C0002C11C4F20401C0F2007678272E60C4F224
:1009D000050708680397902774227C23C4F2050753
:1009E0000697C4F20502C4F205039C270192049302
:1009F00088229423C4F205070997C4F20502C4F2C1
:100A00000503A827059207939822A023C4F205079F
:100A10000C97C4F20502C4F20503B42708920A93A6
:100A2000A422AC23C4F205070F97C4F20502C4F256
:100A30000503C02702900B920D93B022B823C4F295
:100A400005071297C4F20502029F0E92C4F2050335
:100A50001093BC22C423C4F20502C4F2050347F478
:100A600000374FF0180A4FF05C094FF068084FF05C
:100A7000700E11921393C4F2050A0F60C4F20509B7
:100A80000199039FC4F20508C4F2050E0123CAF8B8
:100A90000030C9F80030C8F80030CEF800300B60E4
:100AA0003B600499059F0B603B600699079F0B60B4
:100AB0003B600899099F0B603B600A990B9F0B6094
:100AC0003B600C990D9F0B603B600E990F9F0B6074
:100AD0003B601099119F0B605026542558204FF011
:100AE000C80B3B601299139F0B60C4F2050BC4F254
:100AF0000506C4F20505C4F2050041F20842C4F23D
:100B000005023B60CBF8003033602B600360106857
:100B100041F21843C4F2050320F001011160186886
:100B20004FF4A152C4F2050220F0010119601068CF
:100B300041F23043C4F2050320F00101116018684E
:100B400041F23842C4F2050220F001011960106838
:100B500041F26843C4F2050320F0010111601868F6
:100B600041F27042C4F2050220F0010119601068E0
:100B700041F27843C4F2050320F0010111601868C6
:100B80004FF4A852C4F2050220F001011960106868
:100B900041F20853C4F2050320F001011160186806
:100BA00041F21052C4F2050220F0010119601068F0
:100BB00041F21853C4F2050320F0010111601868D6
:100BC00041F22862C4F2050220F0010119601068A8
:100BD0004FF4A953C4F2050320F001011160186815
:100BE00041F22852C4F2050220F001011960106898
:100BF0004FF4B053C4F2050320F0010111601868EE
:100C000041F20862C4F2050220F001011960106887
:100C100041F21063C4F2050320F00101116018686D
:100C200041F21862C4F2050220F001011960106857
:100C30004FF4B153C4F2050320F0010111601868AC
:100C400041F23062C4F2050220F00101196010681F
:100C5000216841F21873C4F2050320F0010010600E
:100C60001A68886F22F00101196015B0BDE8F04FD5
:100C7000FFF764BD40488B4240F0004618464ED214
:100C80001A1A955D03F8015B2568E9198B42F7D3C1
:100C900012E600F0AFF900F00FFA00F0F9F900F0F9
:100CA00019FA002000F064F9344E3070002000F092
:100CB0005FF900F01005EAB2727092BB2068D0F8BC
:100CC0008800B43000F026F9002000F051F942F21B
:100CD0001077B07000F00CFA00F018FA3A4600BF36
:100CE000551E00BF6A1EFAD1104600F041F9256872
:100CF000F0700FE6AE6C4046C117A6FB082306FB5A
:100D0000013319A1D1E90001801841EB030118A3B7
:100D1000D3E9002300F0B0FC3718AF64FAE51D46B4
:100D2000CAE52168D1F8880000F0F4F80123CCF678
:100D30001B239F42C8D1124F3F68BD6C4246D0175B
:100D4000A5FB082305FB003307A1D1E900018018AA
:100D500041EB030106A3D3E9002300F08DFC291821
:100D6000B964B1E7AFF300800065CD1D000000005D
:100D700000CA9A3B0000000048530000840008109D
:100D800018000810AFF300804421C4F2050130B40C
:100D900002680D68446880684CF63C43CEF200035C
:100DA00012022B4042EA043243F0806342EA0040E0
:100DB00043F04003034340220B60C4F20502116874
:100DC000CB07FCD542F2107200BF531E00BF5A1E63
:100DD000FAD14421C4F205014CF63C430A68CEF234
:100DE0000003134043F0806343F0C00210434022ED
:100DF0000860C4F205021168C907FCD530BC704711
:100E00004FF4C040C4F20F004FF4805100F08CB991
:100E10004FF4C040C4F20F004FF4805100F088B985
:100E200046F20400C4F20F0008B5802100F07CF9FE
:100E300048F2A060C0F2010000BF431E00BF581E70
:100E4000FAD108BD46F20400C4F20F004FF400517D
:100E500000F06EB9F8B54FF4C04C46F2040E46F2FD
:100E6000080746F20C0646F2100446F2140046F259
:100E7000180146F21C02C4F20F0CC4F20F0EC4F2A9
:100E80000F04C4F20F00C4F20F01C4F20F02C4F247
:100E90000F07C4F20F0600231D4DCCF80030CEF82A
:100EA00000303B603360236003600B60136095E8A3
:100EB000030000F041F90824291928594968083429
:100EC00000F03AF92A1928595168083400F034F929
:100ED000B4F5A16FF0D146F20404C4F20F04206807
:100EE00040F080032360FFF79BFF216841F400522C
:100EF0002260FFF7A7FF4FF4C040C4F20F00036861
:100F000043F480510160BDE8F840FFF781BF00BFA6
:100F1000904B000070B5064600F050F9C02000F07C
:100F200071F90F2000F06EF90F24651C305D00F0A0
:100F300069F90234705D00F065F95D2CF5D100F0BF
:100F4000C1F900F03BF9C02000F05CF9952000F0F9
:100F500059F99524651C305D00F054F90234705D38
:100F600000F050F9AB2CF5D1BDE8704000F0AAB903
:100F700010B5044600F022F9C02000F043F92046E5
:100F800000F040F900F01AF9C12000F03BF900F040
:100F900069F9044600F096F9204610BD70B5054683
:100FA0000E4600F00BF9C02000F02CF9EEB12C46F3
:100FB000AE1914F8010BED43A91901F0010500F079
:100FC00021F9B44211D02DB114F8010B00F01AF937
:100FD000B4420AD0254615F8010B00F013F96078E9
:100FE0006C1C00F00FF9B442F4D1BDE8704000F081
:100FF00069B900BF00B545F29803C0F2000383B0A1
:101000001A8801A80221ADF80420FFF7C7FF03B03A
:1010100000BD00BF70B582B055230924022101A88C
:101020008DF805308DF80440FFF7B8FF2046FFF734
:101030009FFF552802D0002002B070BD99220221E6
:1010400001A88DF80520FFF7A9FF2046FFF790FFC4
:10105000AA260221054601A88DF80560FFF79EFF2C
:101060002046FFF785FFFF230221064601A88DF8E1
:101070000530FFF793FF2046FFF77AFF992DDAD16D
:10108000AA2ED8D1B0F1FF0148424841D4E700BFB1
:1010900000B545F29803C0F2000385B053F8040F81
:1010A00059681B7A01AA03C201A809211370FFF72E
:1010B00075FF05B000BD00BF00B5054B83B01A88B1
:1010C00001A80221ADF80420FFF768FF03B000BDBE
:1010D000A850000000B5054B83B01A8801A8022172
:1010E000ADF80420FFF75AFF03B000BDAC5000007C
:1010F00000B5054B83B01A8801A80221ADF8042081
:10110000FFF74CFF03B000BDB050000000B5054B29
:1011100083B01A8801A80221ADF80420FFF73EFF32
:1011200003B000BDB4500000C0F80012704700BF0B
:10113000C0F88012704700BF0160704770B441F280
:10114000140146F6844541F21004C4F20A0141F24A
:1011500018024FF48053C4F20805C4F20A04C4F222
:101160000A02C4F20A0340F608062E6020600860F6
:101170006C2040211060196070BC7047F0B41421DD
:1011800046F20C1646F210151024C4F20E01182275
:101190000023C4F20806C4F20805C4F20E04C127F5
:1011A000C4F20E02C4F20E0337602F6020600860A4
:1011B0006C20402110601960F0BC704741F21803A8
:1011C0004FF48052C4F20A02C4F20A03082120201C
:1011D00019601060136818070DD442F2107004E013
:1011E0001368190707D4013805D0116811F0080FEA
:1011F00000F1FF30F4D041F21801C4F20A012022BC
:101200000A6070474FF48053C4F20A0319688B06D2
:1012100005D541F21803C4F20A0320221A6041F2F4
:101220000801C4F20A0141F21803C4F20A034FF4A0
:1012300080520860C4F20A0208201860116808078A
:101240000DD442F2107304E01168090707D4013B82
:1012500006D0106810F0080F03F1FF33F4D0704788
:10126000704700BF4FF48053C4F20A031868830626
:1012700005D541F21801C4F20A0120220A6041F2A8
:101280001803C4F20A034FF480520820C4F20A0281
:101290001860116808070DD442F2107304E0116859
:1012A000090707D4013B05D0106810F0080F03F1BF
:1012B000FF33F4D041F20802C4F20A021068C0B24F
:1012C000704700BF4FF48053C4F20A0318688206C7
:1012D00005D541F21801C4F20A0120220A604FF438
:1012E000805041F21803C4F20A00C4F20A0310212C
:1012F000082201601A60704743F25411C4F20501DC
:1013000082B00B6801930198C2010DD543F204121B
:10131000C4F20502019BD84340F080731360086853
:101320000190019BDB01F5D402B0704743F2044306
:10133000C4F2040343F25411C4F20501186082B0F0
:1013400008680190019AD3010DD443F20412C4F24B
:101350000502019BD84320F0807313600868019058
:10136000019BD801F5D502B0704700BF43F2501180
:10137000C4F2050182B00B6801930198C3040DD536
:101380004FF44452C4F20502019BD84340F4805309
:10139000136008680190019BD804F5D402B070472F
:1013A000FEE700BF704700BF9749984A914280F01E
:1013B0002881D51C0B1D9648EC1A24F00307024621
:1013C0003D1D52F8046B3C466F18BB420E60C4F3DF
:1013D000800614D03EB112681A6001F10803BB42C6
:1013E00000F108020BD01146184651F8044B40F8A2
:1013F000044B55685D60031D0A1DBB42F3D1854F48
:10140000BB4216D2FE1C1A1DB11A21F00300041DA6
:101410001D19AF1A00267C0708D51E60134604323A
:10142000AA421E6005D0131D16601A1DAA421E6036
:10143000F9D1794D794B9D421CD2D91C2E1D881BA8
:1014400083085F1C01242A6803EA04089047BC4211
:1014500010D0B8F1000F05D0022431688847BC4293
:10146000354607D06E68B0470234A8688047083513
:10147000BC42F7D16A4D6B4B9D421CD2DF1C2E1D26
:10148000BA1B91084F1C0124286801EA040980470F
:10149000BC4210D0B9F1000F05D002243368984740
:1014A000BC42354607D06E68B0470234AA68904700
:1014B0000835BC42F7D172B64FF4445943F2041CCC
:1014C0004EF2802E4EF284274EF288264EF28C2564
:1014D0004EF290244EF294204EF298214EF29C222D
:1014E000C4F20509C4F2050CCEF2000ECEF20007DC
:1014F000CEF20006CEF20005CEF20004CEF20000DD
:10150000CEF20001CEF200024FF4805A4FF2FF7883
:101510004FF0FF33C1F2DF0AC0F2DF18C9F800A0B4
:10152000CCF80080CEF800303B6033602B60236045
:1015300003600B60136062B63B4B3C4E9D1B032D5A
:1015400033DD4FF444503A4A25F00301C4F204005D
:10155000521A9E42026023D2DC1C301D1346251A0B
:1015600025F0030553F8044B294604355519AB42C1
:101570003460C1F3800213D032B153F8041BAB4284
:10158000016006F108000BD01946024651F8044BE1
:1015900042F8044B5C680B1D4460101DAB42F3D154
:1015A0004FF44453C4F204031E604EF68855CEF245
:1015B0000005286840F470012960FEF7DDFE1D4D2E
:1015C0001D4A95421DD2D71C2E1DBC1BA3085F1CB3
:1015D0000124286803EA04088047BC4211D0B8F10E
:1015E000000F05D0022431688847BC42354608D038
:1015F0006A6890470234AB682E1D98470835BC4294
:10160000F6D10B46FBE600BF000008101C000810D6
:10161000C050000088000810B8500000B85000000A
:10162000B8500000B8500000C0500010000000107A
:10163000C0500080B8500000B85000004309990025
:1016400001F1604202F5614300F01F00012101FA3F
:1016500000F21A60704700BF342805D800F16040DE
:1016600000F56442117070474EF6145300F00F00FD
:10167000CEF20003C154704773B96AB9002908BF9C
:101680000028BCBF00204FF00041C4BF6FF00041F4
:101690004FF0FF3000F038B882B0EC462DE9005032
:1016A00000F006F8DDF804E002B00CBC704700BFA3
:1016B000F8B5164604460D461F4600F027F806FB0F
:1016C00001F300FB0737A6FB0023FB18A21A65EB0A
:1016D0000303069CC4E90023F8BD00BFF8B5164615
:1016E00004460D461F4600F06FF900FB07F7A0FB0C
:1016F000062306FB0177FB18A21A65EB0303069C81
:10170000C4E90023F8BD00BF704700BF00292DE9E0
:10171000F00F1D46C0F29D800024002DC0F2948081
:1017200080460F4694461E46E3BB8A4255D9B2FA1C
:1017300082F747B1C7F1200520FA05F601FA07F153
:10174000BA403143B840170CB1FBF7F6030C1FFA4F
:1017500082FC07FB16110CFB06F543EA01439D4290
:1017600008D9711E9B1880F013819D4240F21081B0
:10177000023E9B18591BB1FBF7F507FB151380B20E
:101780000CFB05FC40EA03418C4507D96B1E8A1807
:1017900080F00081944540F2FD80023D45EA06411B
:1017A000002503E08B420CD9002529460A462B462A
:1017B00014B1524263EB430310461946BDE8F00FE3
:1017C0007047B3FA83F5002D40F087808B4201D338
:1017D0008242EAD800250121E8E712B90126B6FBCA
:1017E000F2F2B2FA82F6002E39D18E1A130C1FFAD9
:1017F00082FC0125B6FBF3F703FB17614FEA1049A2
:101800000CFB07F849EA0146B04506D9791EB6181F
:1018100002D2B04500F2D3800F46C8EB0606B6FBF5
:10182000F3F103FB116380B20CFB01FC40EA0343BC
:101830009C4506D94E1E9A1802D2944500F2C280E9
:10184000314641EA0741B1E7E443524263EB4303C7
:1018500066E7404261EB41014FF0FF345DE7B24083
:10186000C6F1200921FA09F720FA09F5130C01FA4B
:1018700006F1B7FBF3F845EA01091FFA82FC03FB06
:1018800018774FEA19410CFB08F541EA0747B040C9
:10189000BD420AD9BF1808F1FF3680F08E80BD42E4
:1018A00040F28B80A8F10208BF18791BB1FBF3F559
:1018B00003FB15171FFA89F90CFB05F649EA0741E6
:1018C0008E4206D96F1E891871D28E426FD9023DA1
:1018D00089188E1B45EA08458CE7C5F1200122FADC
:1018E00001F306FA05F61E4327FA01F24FEA1649FC
:1018F00007FA05F720FA01F1B2FBF9F80F433B0CA8
:101900001FFA86FA09FB18220AFB08FB43EA024287
:1019100093450CFA05FC08D9921908F1FF314AD217
:10192000934548D9A8F102089219CBEB0203B3FB07
:10193000F9F109FB1132BFB20AFB01FA47EA02438F
:101940009A4506D94A1E9B1933D29A4531D9023994
:101950009B1941EA08410F0C1FFA8CF808FB07F6A7
:101960008AB24FEA1C4C08FB02F80CFB026202EB45
:1019700018420CFB07FC964288BF0CF5803CCAEB72
:1019800003030CEB124C63450ED305D000250DE785
:101990000E46EFE61D4601E71FFA88F800FA05F04B
:1019A00008EB0245A842F1D201390025FEE63D468A
:1019B0008FE71146CDE78846B7E7B04675E7023FA7
:1019C000B6182AE702393CE72DE9F0071446054628
:1019D0000E46002B3DD18A4249D9B2FA82F747B16F
:1019E000C7F1200120FA01F206FA07F6BC401643BF
:1019F000BD40220CB6FBF2F02F0CA1B202FB106628
:101A000001FB00F347EA0646B34208D9471E3619E0
:101A100080F0F880B34240F2F58002383619F61AA9
:101A2000B6FBF2F302FB1362ADB201FB03F145EA30
:101A30000242914207D95E1E121980F0E580914260
:101A400040F2E280023B43EA00400021BDE8F0079B
:101A500070478B4243D8B3FA83F4002C42D18B42B7
:101A600002D3824200F2DF8000210120EEE712B9AA
:101A70000127B7FBF2F4B4FA84F2002A40F0888020
:101A80000A1B230CA7B20121B2FBF3F603FB1622BB
:101A90004FEA154C07FB06F04CEA0242904207D988
:101AA000121906F1FF3C02D2904200F2CE80664647
:101AB000121AB2FBF3F003FB1023ADB207FB00F7E1
:101AC00045EA03439F4207D9421E1B1980F09E80BE
:101AD0009F4240F29B80023840EA0640B6E7002170
:101AE0000846B3E7C4F1200622FA06F503FA04F328
:101AF0002B434FEA134C21FA06F501FA04F120FAC0
:101B000006F6B5FBFCF746EA010A1FFA83F80CFB60
:101B100017554FEA1A4108FB07F941EA0545A9455F
:101B200002FA04F203D97E1EED187FD33746C9EBC3
:101B30000501B1FBFCF60CFB16151FFA8AFA08FB2F
:101B400006F84AEA0541884503D9751EC91873D3BA
:101B50002E4646EA0746370C1FFA82FC0CFB07F5B7
:101B6000120CB3B20CFB03FC02FB035303EB1C434C
:101B700002FB07F29D4288BF02F58032C8EB0101EB
:101B800002EB134291424BD342D0304600215DE735
:101B90009440C2F1200521FA05F6230C20FA05F73E
:101BA00001FA02F1B6FBF3FC39430D0CA7B203FBBB
:101BB0001C6645EA064607FB0CF8B04500FA02F53C
:101BC00008D936190CF1FF303DD2B0453BD9ACF104
:101BD000020C3619C8EB0602B2FBF3F003FB102629
:101BE0008AB242EA064207FB00F1914206D9461E3C
:101BF000121926D2914224D902381219521A40EAF7
:101C00000C4141E738460AE733461CE7104663E7D4
:101C10001FFA8CFC00FA04F00CEB03439842B4D298
:101C2000701E002112E7214620460FE7A9457FF6E6
:101C30007DAF023FED187AE7884589D9023EC91881
:101C400087E73046DAE78446C4E7023E12192FE7F9
:101C5000E00F002055E5002051E50020D5CC002004
:101C60000000000000000000000000000000000074
:101C700000000000000000000000000051E500200E
:101C8000000000000000000051E5002051E50020A8
:101C90004DE50020D9C100204DE5002000000000E6
:101CA0004DE500204DE500204DE500204DE50020EC
:101CB00025DB00204DE500204DE500204DE500200E
:101CC0004DE500204DE500204DE500204DE50020CC
:101CD0004DE500204DE500204DE500204DE50020BC
:101CE0004DE500204DE500204DE500204DE50020AC
:101CF0004DE500204DE500204DE500204DE500209C
:101D00004DE500204DE500204DE500204DE500208B
:101D100008B503695868002801D000F015F900F0F3
:101D2000F9F808BD054B0122196848700A70BFF325
:101D30004F8F40BF08680028FCD170476CEC002032
:101D4000054B0122196848700A70BFF34F8F40BFDE
:101D500008680028FCD1704770EC002038B5204B93
:101D6000051C1868012245700270BFF34F8F40BFF9
:101D700001680029FCD11B4C2368188B02F04EF837
:101D80002068408B02F064F86AB2002A12DA7F20E1
:101D90002168054018225543081C0431CB6F483098
:101DA0005919096901F020F82468201C04344830CE
:101DB000E36F0DE0182321685D438A6F081C5119F9
:101DC0004830096901F010F82468201CA36F4830DE
:101DD0005D19297D01F028F8034A0120106038BD03
:101DE00078EC002028EF002000F0002010B5041C43
:101DF00001F040F80A4B0222186844700270BFF3E9
:101E00004F8F40BF01680029FCD1064C2368188B16
:101E100002F004F82068808B02F01AF810BDC0466A
:101E200078EC002028EF0020014B00221A60704758
:101E30003031044070B58CB000F072FC274B01AC1F
:101E40001868483001F04AF8254801F0B5FE01F065
:101E5000F5FA244D0020291C01F0EEFB224801F088
:101E60005FFD224801F05CFD214801F059FD214849
:101E700001F056FD204801F035FC204801F032FC0D
:101E80003A202070201C01F04FFA218B002903D149
:101E9000606AA16A00F0C4FC0820FF2102F042FA47
:101EA0000120011C02F03EFA012002F02FFA281C4A
:101EB00001F006FC124A134B134D16681868296886
:101EC00020BF346802680B689C42F9D00F4E10485E
:101ED000A11901F0B1FD2A681460EBE728EF00209A
:101EE000C1C000201CEE002048EE002068EE00205B
:101EF00058EE0020F0EE002078EE0020C8EE002022
:101F000074EC00207CEC002080EC002000400020DD
:101F100000EF002038B5041C00F0F6FB074D012C43
:101F200006D1074801F0DEFB2878FFF717FF02E033
:101F30002878FFF75BFF034B1C7038BD00F50020CD
:101F400000EF002004F00020014B18787047C046D5
:101F500004F0002008B543781B2B06D8054A9B00E7
:101F60009B58002B04D0984703E04842484100E0CA
:101F7000012008BD90F3002008B5002901D100F030
:101F8000B7FC002008BD70B5051C00200C1E844263
:101F90000DD16E880120B21E0B2A08D800F0EAFF8E
:101FA000300401F0C7F8A86901F053FD201C70BD92
:101FB00038B50023994219D181880123FF2915D80A
:101FC00044889C4212D80A4D4A0952191F252940BB
:101FD00092008B401168012C01D10B4301E0994321
:101FE0000B1C1360806901F034FD0023181C38BD00
:101FF00000D8031038B5051C0C1E07D100F0BAFF3D
:10200000201C01F097F8A86901F023FD002038BDDD
:10201000F8B5041C00292AD1164B81881868021CC7
:10202000763215882E1C8D4200D90E1CB2B2124990
:10203000402A02D8002A03D000E04022002303E017
:102040000D60A06904220DE0934209DA18265E4370
:10205000876F9D00BE19376901337E004E51F3E74B
:10206000A069920001F0E8FCE06901F0F2FC0020B8
:10207000F8BDC04628EF002000F40020002238B54B
:10208000041C0D1E95421AD183880122FF2B16D8FD
:102090000C4859090918880001681F200340101CCA
:1020A0009840031C0B40591E8B41211C23720831A0
:1020B000A06901F0C1FCE06901F0CBFC2A1C101CF6
:1020C00038BDC04600D8031070B50025041C0E1E94
:1020D000AE4217D18388042B08D1C2880A4980698F
:1020E00001F0AAFCE06901F0B4FC0BE00125052B2E
:1020F00008D1C2880549806901F09EFCE06901F0C1
:10210000A8FC351C281C70BDAFEC002082ED00201F
:1021100010B5041C002909D10172011C0831806925
:10212000012201F089FCE06901F093FC002010BD60
:1021300010B5041C00290AD18388012B02D100F0BC
:10214000DDFB01E000F0E4FBA06901F082FC00206F
:1021500010BD000010B5041C00290FD1084B2179D7
:102160001868483000F0E2FD211C20720831A06997
:10217000012201F061FCE06901F06BFC002010BD60
:1021800028EF002010B5041C00290FD1084B21793D
:102190001868483000F0C1FD211C20720831A06988
:1021A000012201F049FCE06901F053FC002010BD60
:1021B00028EF002010B5041C00290FD1084B21790D
:1021C0001868483000F0A2FD211C20720831A06977
:1021D000012201F031FCE06901F03BFC002010BD60
:1021E00028EF002010B5041C00290FD1084B2179DD
:1021F0001868483000F083FD211C20720831A06966
:10220000012201F019FCE06901F023FC002010BD5F
:1022100028EF002010B5041C00290FD1084B2179AC
:102220001868483000F064FD211C20720831A06954
:10223000012201F001FCE06901F00BFC002010BD5F
:1022400028EF002010B5041C002905D109490422FB
:10225000C06901F0F1FB0BE0012909D1064B0549EA
:1022600018680968483000F0EFFCA06901F0F1FB44
:10227000002010BD88F3002028EF002070B5041C5A
:102280000020814255D1A3882A4A3F2B06D81068E6
:1022900076300188012099422ADC4AE0FA2012684F
:1022A00080005843131C76331B8899420CDA18259A
:1022B0004D43966F75192E69B500854202D11E4AAD
:1022C00011701AE00131F0E7111C7E3109880023FA
:1022D00000E001338B420EDA151DEE6F18255D43C9
:1022E00076193569AE008642F3D1802041420B4316
:1022F000114E337001E001201BE0FFF725FE0E4D6B
:10230000061E012E02D12878FFF770FD2878FFF70E
:1023100009FD012E02D12878FFF720FD0122211CA2
:1023200022720831A06901F087FBE06901F091FB9E
:10233000002070BD28EF002000F5002070B5041CBF
:102340000020814221D1A388012083421DD8DEB222
:10235000FFF7FAFD051E012D03D10C480078FFF7A9
:1023600045FD301CFFF7ECFC012D03D1074908782F
:10237000FFF7F4FC0122211C22720831A06901F050
:102380005BFBE06901F065FB002070BD00F50020FB
:1023900070B5002592B0061CA94226D107AC3623A1
:1023A000201C237000F0C0FF208BA84201D0012523
:1023B0001BE0E169226A3A23201C019102922370FA
:1023C00000F0B2FF208B0028F1D1E169226A636A34
:1023D000A46A03910492B06901A918220593069496
:1023E00001F02AFBF06901F034FB281C12B070BD2B
:1023F00038B5051C002922D1124C00220B1980206F
:1024000001311A7043009942F6D10F49201C096826
:10241000083102F0B5F8201C02F0BAF80B49001997
:1024200002F0AEF8201C02F0B3F8021D0320824334
:10243000211CA86901F000FBE86901F00AFB0020FB
:1024400038BDC04600F4002028EF002050E90020ED
:10245000F8B5051C002931D1C488478882888026B8
:1024600001208640B44236D838041043802307192F
:10247000194E5A03974217D9032C0DD90323271C51
:102480001F4009D1034008D1A1089A001758013311
:10249000B7508B42F9D30BE000E0391CA14207D2C0
:1024A0000A5C72540131F9E7211C321C00F0F2FE83
:1024B000A869311C221C01F0BFFA0BE000200129A1
:1024C00009D1EA888023081C59008A4203D8E869A8
:1024D00001F0BFFA0020F8BD00F4002070B5041C24
:1024E0000D1E17D1E288012380264088A1889E40D6
:1024F000B2422AD8050480200D4341038D4224D8DE
:10250000AE188E4221D81249E06901F095FA00F028
:1025100031FD19E00023012917D1E18880262B1C09
:102520004088A2887500A9420FD800041043802279
:102530005603B04209D84518B54206D8044A00F0FF
:1025400069FEA06901F085FA0023181C70BDC04621
:1025500000F4002070B50025041C0E1EAE4214D1FC
:1025600081880125FF2910D8094BC9B21868483065
:1025700000F0F4FA211C2A1C20720831A06901F035
:102580005BFAE06901F065FA351C281C70BDC04695
:1025900028EF002038B5041C00200D1E854211D103
:1025A000A1880120FF290DD86288FF2A0AD8064B8E
:1025B000C9B21868D2B2483000F08EFAA06901F0B2
:1025C00048FA281C38BDC04628EF002070B5002509
:1025D000041C0E1EAE4211D180880125FF280DD8A3
:1025E000C0B200F0C0F9211C2A1C20720831A06979
:1025F00001F022FAE06901F02CFA351C281C70BDAC
:1026000038B5041C00200D1E85420ED1A388012080
:10261000FF2B0AD86188FF2907D8D8B2C9B200F0C9
:1026200091F9A06901F015FA281C38BD38B50023CE
:10263000051C0C1E9C420AD140880123984206D8F2
:10264000C0B2FFF767FCA86901F003FA231C181C4D
:1026500038BD000038B5002399421BD18288012380
:10266000FF2A17D844889C4214D80B4D51094919A8
:102670001F252A4089009340012C03D18025AA0000
:10268000891802E0A022940009190B60806901F00A
:10269000E0F90023181C38BD00D8031010B5041C45
:1026A0000020814222D1A2880120FF2A1ED8104991
:1026B00053095B181F210A409B0090401A68104282
:1026C00003D080218A009B1801E00133FF331B688F
:1026D000211C1840431E9841207208310122A06934
:1026E00001F0AAF9E06901F0B4F9002010BDC0467C
:1026F00000D8031080239A00801801607047A0233F
:102700009A0080180160704708B5034800F0CEFEBB
:10271000024800F0CBFE08BD00EF0020A0EE002034
:102720001F4B2049204800221A7008601F4B204A86
:10273000204821491A6058609960204A2048214960
:10274000DA6018615961204A204821499A61D861AC
:102750001962204A204821495A629862D962204A67
:10276000204821491A6358639963204A2048214927
:10277000DA63214A18645964204821499A64214A3D
:10278000D8641965204821495A65214A9865D96558
:102790001A6620482049214A58669966DA667047C9
:1027A00000F5002088F3002000E1F50590F30020FB
:1027B00029C30020DDC90020B1C900207DC9002047
:1027C00045C9002005C90020A5C300208DC80020F0
:1027D00001C80020C1C40020A1C7002041C70020BB
:1027E0002DC60020F5C50020C5C5002095C50020D8
:1027F00065C5002035C5002005C5002079C400202E
:10280000E1C4002005CA00204DCA002061C3002099
:102810002DC40020C1C30020EDC6002037C3002016
:10282000F0B52D4B050E2C091E5D0F2425402B4ABB
:102830005F5DFF25967517762E04071C37403D0C0B
:102840002F09DF5D25405D5D9776FF2715773D02F7
:1028500005402F0A3D095D5D2740BC4695776546DA
:102860005D5D571CFD77C7B23D095D5D2040185C7A
:10287000D71CFD77571DF877080E05095D5DD71D3C
:102880002040185CFD770E40171C350C2837387037
:102890002F09D85D161C2A3630702540FF265D5D55
:1028A000171C300208402C373D70070A3E09985D1E
:1028B000151C2740DF5D2E35161C28703036CDB232
:1028C00037700C402E099F5D101C195D3230343278
:1028D00007701170F0BDC046A0E90020D7EC0020C1
:1028E0000023834202D0C0460133FAE7704700005C
:1028F000014B01221A60FEE70031054008B5802136
:1029000002488901FFF7F6FE08BDC04604600F408B
:1029100008B5802102488901FFF7F1FE08BDC046D5
:1029200004600F40042475462C4202D0EFF3098066
:1029300002E0EFF30880FFE7014B186000BEFEE7FE
:1029400040F7002038B50C1C051C01F09DFAC02092
:1029500001F0DAFA281C01F0D7FA201C01F0D4FAB1
:1029600001F072FB38BD10B5041C01F08DFAC020D7
:1029700001F0CAFA201C01F0C7FA01F085FAC12063
:1029800001F0C2FA01F00CFB041C01F05DFB201CFD
:1029900010BD000038B50C4B051C18680C1C020655
:1029A00010D50A490A78002A0CD101F08DFA34209A
:1029B00001F0D0FA281C01F0CDFA201C01F0CAFA6F
:1029C00001F054FB38BDC04604620F402CEF0020DC
:1029D0000021312806D9044A32381421904201D806
:1029E000024B195C081C704757020000C4E9002024
:1029F00038B50E4B051C1868020616D50C490C7824
:102A0000002C12D101F060FA342001F0A3FA052065
:102A100001F0A0FA285D013401F09CFA1B2CF9D1D9
:102A2000002001F097FA01F021FB38BD04620F404D
:102A30002CEF0020F8B5254B161C1A6880240D1CBD
:102A400014400CD0224900240F78002F07D10CE04D
:102A5000671F1D2F06D80219D3792B550134B442B4
:102A6000F6DB32E001214B42F7E701F02DFA352089
:102A700001F070FA174C012E0ED8381C01F0B6FA8E
:102A80000F2606400709A25DF8B2245C110121431C
:102A9000297001F0EBFA18E02F1C731E781B984286
:102AA0000DDA012001F0A2FA0F230340E25C0009D5
:102AB000C3B21101E25C114339700137EDE7002028
:102AC000AD1901F093FA013DDAE7F8BD04620F4059
:102AD0002CEF00205BEC00200E4B70B5061C186834
:102AE0000D1C141C020603D50B490A78002A02D0DB
:102AF0007619F47170BD01F0E7F9342001F02AFA7B
:102B0000281C01F027FA201C01F024FA01F0AEFA8B
:102B1000EEE7C04604620F402CEF002008B54B1FC3
:102B20001D2B02D8C3181B7B01E001235B4293429B
:102B300001D0FFF7D1FF002008BD10B54C1F1D2CA0
:102B400008D80419247B9C431340221C1A43FFF726
:102B5000E5FF01E00120404210BD000038B5044D02
:102B60004A1C0C1CD2B2291CFFF764FF285D38BD3B
:102B700044F70020F7B50568041C0E1C00235F1CF9
:102B8000311C2F4AB94088182E49884203D93B1E70
:102B9000052BF4D100E01F1C7A01D2B2201C1021B9
:102BA000E023FFF7CAFF002848DB0137690C6808FB
:102BB000BE40019000917018291C01F0CDFB031C50
:102BC0000D3BDAB2071C90088100531A9A01801855
:102BD000C2B21421201CFFF7A1FF00282EDBFFB298
:102BE0007D43761B04D10822201C1221131C23E0F4
:102BF000009D002776193B1C019ADA40964206D3C5
:102C00008021080218410743BFB2B61A02D001332F
:102C1000102BF1D1FAB2201C1521FFF77FFF0028FD
:102C20000CDB3A0A201C1621FFF778FF002805DB91
:102C3000201C122100220823FFF77FFFFEBDC046A3
:102C400080F17F968038F57EF8B5264B244A041C27
:102C50000D1C8768081C002101F0CEFB081CFFF743
:102C6000B7FE03267043204908230E183278201C33
:102C70001721FFF762FF00282EDB7278201C1A2133
:102C8000C323FFF75AFF002826DBB278201C1B2144
:102C9000FFF744FF00281FDB201C102108220B2314
:102CA000FFF74BFF002817DB201C082100223F23E1
:102CB000FFF743FF00280FDB201C092100223F23E0
:102CC000FFF73BFF002807DBE919201CFFF752FF45
:102CD000002801DB65600020F8BDC046C046C04644
:102CE000C7100000000000001CEC0020C046C046D9
:102CF00008B50A1C0F230521FFF71FFF08BD08B503
:102D00000A1C0F230721FFF718FF08BD08B50A1C8E
:102D10000F230C21FFF711FF08BD08B54A424A41B5
:102D2000120105211023FFF708FF08BD08B50A1E90
:102D300000D0102207211023FFF7FFFE08BD00007E
:102D400037B5041C0525201C0B2108226023FFF742
:102D5000F4FE002843DB0422201C0F21131CFFF784
:102D6000ECFE00283BDB201C102100220323FFF790
:102D7000E4FE002833DB201C1949FFF7FBFE002886
:102D80002DDB1022201C0B21131CFFF7D6FE002880
:102D900025DB1448FFF7A4FD201C0B210022102383
:102DA000FFF7CBFE00281ADB201C0F210022042392
:102DB000FFF7C3FE002812DB201C05226946FFF73F
:102DC00039FE6B461A790F20104001D00F2805D12B
:102DD000013D002DB7D10121484200E000203EBD59
:102DE00000C63E051027000038B50E4B041C00221B
:102DF00081600C301A70FFF7FBFD6168201CFFF743
:102E000023FF201C6568FFF79BFF6560002803DA3D
:102E1000201CFFF795FF6560291C201CFFF714FF9D
:102E200038BDC0462CEF0020F0B5114F87B001AE81
:102E3000041C0D1C301C391C042201F0FFFA391D42
:102E400002A8102201F0FAFA0F202B0902A905406E
:102E5000F65C4A5DB02506432A43201C0A21FFF791
:102E60005DFE201C0B21321CFFF758FE07B0F0BDA1
:102E7000B0E9002008B50520A021FFF78BFD062052
:102E8000D021FFF787FD07200021FFF783FD0820F1
:102E90004021FFF77FFD0920C021FFF77BFD0A20BD
:102EA0007021FFF777FD0C20A021FFF773FD0F20A5
:102EB0002A21FFF76FFD11200321FFF76BFD17207B
:102EC000F421FFF767FD19200C21FFF763FD024B8A
:102ED000012200201A7008BD2CEF002008B5044B19
:102EE00000220C301A70FFF783FDFFF7C3FF08BD07
:102EF0002CEF002070B50B4D80242401281C211CD0
:102F0000FFF7FDFB0521002001F022F9FF21002041
:102F100001F01EF9211C061C281CFFF7EBFBF0B288
:102F200070BDC04614600F4070B5114D802424015F
:102F3000281C211CFFF7E3FBAB21002001F008F95E
:102F4000FF21002001F004F9FF21002001F000F929
:102F5000FF21002001F0FCF8FF21002001F0F8F82B
:102F6000211C061C281CFFF7C5FBF0B270BDC04633
:102F700014600F40F0B58022314B900387B0186089
:102F8000F221304800F048FF2F48F02100F044FFC4
:102F90002E48F02100F040FF2D48F02100F03CFFCA
:102FA0002C48F42100F038FF2B48F42100F034FFC6
:102FB0002748F52100F030FF2648F52100F02CFFCE
:102FC0002048F22100F028FF1F48F02100F024FFE4
:102FD000224D1E48F021C02700F01EFF204C1E4845
:102FE000F4213F02802600F017FF3601281C391C0F
:102FF000FFF780FB311C201CFFF77CFB29680220B7
:103000000F432F6022680025164326602B1C00907A
:103010000190029503950495281C07212A1C01F0B4
:1030200037F8104B1D701F1C3C78132C05D0152C45
:1030300003D0FFF779FF3870F6E707B0F0BDC04660
:10304000043105408C61084090610840946108405B
:10305000986108409C610840A061084004600F40EE
:1030600014600F4064F70020802138B50901051C69
:103070002048FFF744FB204B1878132819D1002073
:103080004B2101F065F804240020FF21013C01F0F0
:103090005FF8002CF8D10020FF2101F059F82855E5
:1030A0000134082CF7D1802212481101FFF722FBCE
:1030B00038BD1528F7D14B21002001F049F8002038
:1030C000011C01F045F80121002001F041F8022126
:1030D000002001F03DF80020FF2101F039F8002424
:1030E0000020FF2101F034F828550134082CF7D1D5
:1030F000D9E7C04614600F4064F7002008B5FFF719
:10310000F9FEC307FBD408BD38B5094D802424015E
:10311000FFF7F4FF281C211CFFF7F1FA062100201D
:1031200001F016F8281C211CFFF7E4FA38BDC04650
:1031300014600F4038B5174D0023041C2B702878FD
:10314000132805D0152803D0FFF7EEFE2870F6E708
:10315000FFF7DAFFFFF7D2FF80210F480901FFF7E1
:10316000CEFAD821002000F0F3FF2202110E250430
:10317000002000F0EDFF290E002000F0E9FFE1B291
:103180000020802400F0E4FF03482101FFF7B2FA99
:1031900038BDC04664F7002014600F40F8B5C7B2D0
:1031A000161C8023CA19041C0D1C580082422ED8FC
:1031B00080214A03531B9C4229D8FFF7A5FFFFF744
:1031C0009DFF802112480901FFF799FA0221002092
:1031D00000F0BEFF2002010E2404002000F0B8FF22
:1031E000210E002000F0B4FFB9B2002000F0B0FFC3
:1031F000341CA71BAF4205DA2178002000F0A8FF9D
:103200000134F6E7802502482901FFF773FAF8BD7B
:1032100014600F40F8B5041C0D1C171CFFF784FE4A
:10322000132801D01528F9D18023580385422FD8BF
:1032300084422DD82A1982422AD880267300E1B20E
:10324000581A86B2B54202D2AEB2002E07D0201C68
:103250003A1C311CFFF7A2FFA419BF19AD1B261C95
:103260003A1B611992198B1BFF2B07D98021301C47
:1032700049000136FFF792FFFF36F1E7280A060200
:10328000EDB23019BA19002D02D0A9B2FFF786FFAE
:10329000F8BD0000F8B58023051C0E1C141C580353
:1032A000814231D885422FD84A1982422CD8FFF763
:1032B00025FF802115480901FFF721FA0B21002085
:1032C00000F046FF290C002000F042FFFF27290AEA
:1032D0003940002000F03CFF291C3940002000F05C
:1032E00037FF0020391C00F033FFA519AC4206D08F
:1032F0000020FF2100F02CFF20700134F6E780242D
:1033000002482101FFF7F6F9F8BDC04614600F40EE
:10331000034B044918684018431E98417047C04643
:103320000001401088A9CBED38B5041CFFF7F0FF71
:10333000051E06D0104D211C18312A68201C90470C
:1033400018E0FFF717FE2378362B08D03A2B0ED162
:10335000201CE56125622430FFF786FE05E0074A60
:1033600007481368E36101682162258302E0802039
:1033700041002183208B38BD000140100032044001
:1033800000500440074B0849084A1860084B086081
:103390001060196801401960064B1A6810401860E7
:1033A0007047C046786100407C6100404461004045
:1033B000AC610040BC610040044B19680142FBD184
:1033C000034B18601A680242FCD17047B06100409C
:1033D000B46100400C4A0D4B11680D481940116052
:1033E00002681A4002600B480B4A016819400160EC
:1033F000106818401060094A0948116819401160A6
:103400000268134003607047C06100407FFF7FFF88
:10341000C4610040C8610040CC610040D061004000
:10342000D46100400F2203061040D90F40000B1852
:10343000014A99018818704700F80020054A802346
:103440009802002110601160034A13680342FBD008
:103450007047C046003105405031054038B5046919
:103460000D1C201CFFF7DEFFC368C022934385605C
:10347000C3600F20204001218140034D0B1C20061A
:1034800000D50B042B6038BDB0610040026938B52F
:10349000041C0F25154000F06DFA23690120A84097
:1034A0001A0600D50004FFF787FF38BD036910B581
:1034B0000F21041C1048194080220918134205D01E
:1034C000890008680D4B03400B6003E08B0018680F
:1034D00090431860201C00F04DFA21690F220A4029
:1034E00001209040090600D50004FFF74BFF201C87
:1034F000FFF7CCFF10BDC04670180010FFFF7FFF24
:1035000010B504690F23234007490122200603D583
:103510009A400868140402E09A400868141C20408D
:10352000431E984110BDC046B8610040F8B503691C
:103530000A60161C0F22051C1A40134801211C06A4
:1035400003D5914004680F0402E0914004680F1C09
:103550003C40621E9441002C15D10C4C8020226806
:10356000C7013A432260281CFFF7CAFF216839428D
:10357000F3D02268064B13402360002803D1281C97
:10358000311CFFF76BFFF8BDB061004040610040A7
:10359000FFBFFFFF38B5051C0C1C281CFFF7B0FF50
:1035A0000028FAD10123281C2360211CFFF756FFB5
:1035B00038BD000002690F230448134019188B001E
:1035C0001A68034802431A607047C046701800101A
:1035D00001000100084B021C196801208A420AD12F
:1035E0000648C02302681905F82011400206881811
:1035F000434258410130704740F30020846100404D
:10360000034B1A68904202D1024849060160704794
:1036100040F3002054610040054B1A68904205D1E8
:10362000480680214A04034B02431A607047C04693
:1036300040F300205461004008B500282BD1164803
:10364000164B0268196020218A430260FFF7C2FE10
:1036500001235842FFF796FE01204042FFF7ACFEDF
:103660000F4B01211A6802208A431A6018601868FB
:1036700002210B4A0842FAD10A4B092019600A4973
:103680000A4B086010680A490340136009480A4A57
:103690000A4B0A60186008BD0430044040F3002063
:1036A00040610040A8610040A4610040FFFF00FFAE
:1036B000586100404701000000F8002048610040C8
:1036C00008B5064B1968884202D1082000F01EFE9A
:1036D0000348012302681A43026008BD40F300203A
:1036E00040610040F8B5041CFFF7D0FE636918681C
:1036F000C779201C00F041FA051E06D000F052FAEE
:10370000071C281C00F054FA051C2669301CFFF722
:1037100089FE6B426B4180223904DF039305194314
:103720003943016001270021C16041600161876068
:1037300041618161C161016244620F240B483440E0
:103740002218930019680A4CAF00AD043D430C40A9
:1037500025431D60320603D5C0221868160401E017
:103760001E68C02006431E60F8BDC04670180010D9
:10377000F3FFF3FFF0B55D4B5D4A1968106885B043
:1037800001400091196000D1ADE0CB0718D400983A
:10379000420600D4A7E0574E012437680125FFF701
:1037A00019FE6042FFF7EEFD6842FFF705FE381C88
:1037B0000021FFF725FF381C002100F003FA92E0FA
:1037C0004D4F00263B680393B3425DD14B4E00241E
:1037D0003768A74270D1DAE7301CFFF723FE446A4E
:1037E000002C58D0206A002855D02369181C01935A
:1037F000FFF718FE011C28310A78051C22702935B4
:103800002B78011C63702A310A78051CA2702B35B5
:103810002B78011CE3702C310A78051C22712D35A0
:103820002B78011C63712E310A782F30A271007839
:10383000A569E0710198FFF7F5FD031C283319789D
:10384000021C297029321378011C6B702A310A7806
:10385000031CAA702B331978021CE9702C321378E0
:10386000011C2B712D310A78031C6A712E331978D3
:103870002F30A9710078E871029D226A3D60201CFA
:1038800090470136062EA1D00121039AB140029142
:103890000A42F6D0A0E7029D3D60F2E73560201CA9
:1038A000FFF7C0FD406A00280BD129040F420DD15B
:1038B0000134062C00D16AE70125A5402F42F4D03F
:1038C000ECE7436A002BF0D09847EEE7201C31600C
:1038D0008030FFF7A7FD406A0028E9D0426A002A3D
:1038E000E6D09047E4E705B0F0BDC0464461004033
:1038F0004861004040F30020AC610040BC610040E2
:1039000003690F211A060B40D00F5B001A180349F8
:1039100090004058002800D1FEE7704744F3002093
:10392000036870B51C690F2221061440CD0F660094
:10393000AC190E4BA100CA58002A00D0FEE7C850AF
:10394000816844680B1C651EAA4206D280331E1C87
:10395000803E336070660132F6E7054D0023621940
:10396000D6018C192360606670BDC04644F3002008
:10397000FFFFFF0108B5FFF7C3FF72B6C368002B56
:1039800007D0C36819685A6EC16091681960936066
:10399000F4E762B608BD000038B50C1C151CFFF733
:1039A000AFFF8368002B42D072B68368002219688B
:1039B00081601A6062B6012119641E492A040A4313
:1039C0005A64802251016218110B0A0380219C6401
:1039D000DA648A01A1180A0B1103C022196591014A
:1039E0006218110B0A0380215A65CA01A418210B21
:1039F0000A039A651D6672B65D6EEC68002C0DD0E8
:103A0000E9680A68002A01D0111CFAE71A1C0B6049
:103A1000006840314032FFF789FD05E0191CEB607A
:103A200000684031FFF7B6FD62B6002001E00120DA
:103A3000404238BD8080000070B5061C0D1C141C6F
:103A4000301C291C221CFFF7A7FF0130F8D00020F2
:103A500070BD08B500210A1CFFF7EEFF08BD10B5C8
:103A6000FFF74EFF002800D1FEE7C368002B10D0FF
:103A70005A6C68210A4200D0FEE7110609D41A6880
:103A8000596EC26072B68C681C608B6062B6131C83
:103A9000ECE710BD10B502786023041C1340402BE6
:103AA0000FD006D8002B09D0202B12D10B4842682A
:103AB00009E0602B0DD1094BDA6804E0074A12686F
:103AC00001E006488268002A03D0201C90470028A5
:103AD00002D0201CFFF76EFD10BDC0467CE900201F
:103AE00008B50021FFF7D6FF08BD10B50378041C08
:103AF000DA090221002A00D10121FFF7CBFF201CA7
:103B0000FFF7ADFF10BD10B50378041CDA090121E1
:103B1000002A00D10221FFF7BDFF201CFFF79FFF05
:103B200010BD10B5041CC38848780A78022801D05B
:103B3000072803D1CA78887812020243A0699A4202
:103B400000D91A1CFFF778FFE069FFF782FF002019
:103B500010BD436970B5DD68002408CD002B0AD084
:103B60001E7A8E42F9D1944203D11968FFF7D9FF2A
:103B700002E00134F1E7012070BD436910B51B6913
:103B8000021C002B0CD018680378002B08D0417859
:103B9000052903D181781469A14202D0C018F3E746
:103BA000181C10BD427903791102081C1843704794
:103BB000C078032318407047014B18607047C04617
:103BC00074F3002070B5041C0D1E0ED0C668002EC4
:103BD00018D0FFF7FFFC08CE002B13D01A7A8242D0
:103BE000F9D15968A942F6D100E00B1C2069834243
:103BF00000D02361044B1D68002D01D0201CA84774
:103C0000012000E0002070BD74F30020F8B5041C12
:103C100040780E1C0B2800D9EAE000F093FB062A3E
:103C2000E93EE9AF70E9CCBA53630025A94200D060
:103C3000DFE022781F210A40012A16D0AA4211D0C3
:103C4000022A00D0D5E0A7886B480F233B401E18FE
:103C5000B1000F68694B6A493B40581E83410B8095
:103C6000A0693BE0A069674901E0A06966490222BA
:103C700034E00025A94200D0BBE022781F2111408A
:103C8000022900D0B5E0A7885B480F233B401E18EF
:103C9000B7003A685D48104012E00025A94200D004
:103CA000A7E027781F203840022800D0A1E0A6888E
:103CB0000F225149324053189F0038684F4E30430D
:103CC000386018E00025A94200D092E022781F2039
:103CD0000240012A00D08CE0A0694D49FFF7ACFEFC
:103CE000E06909E00025A94200D082E022781F2384
:103CF0001340012B7DD1A069FFF7ABFE79E00029CD
:103D00005BD1E0780138062872D800F01BFB04076D
:103D10002171711013006169096823E06069FFF780
:103D200059FCA278011C201C02290AD10DE063690C
:103D3000996817E06069FFF74DFCA278022802D16C
:103D4000201C012101E0201C0221FFF702FF0CE0F2
:103D5000A078EE2802D1201C2E4904E067690026D5
:103D60007D6807E0201CFFF7DCFE051C41E0864271
:103D7000F8D0013602CD0029F9D139E000291CD153
:103D8000A1786069FFF748FCA069FFF762FE351C67
:103D90002FE0002911D1A7786069391CFFF712FFC5
:103DA0000125002825D0002F03D16069311CFFF7C1
:103DB00027FCA06918E0002904D00222B2429B41EE
:103DC0005D4216E0E1880125A94212D1656926729B
:103DD0002E69002E01D072682272211C0831A06960
:103DE0000122FFF729FEE069FFF733FE002500E01E
:103DF0000125281CF8BDC046701800100100010004
:103E000000FB00207AF3002078F30020FEFFFEFF85
:103E10007CF3002041ED002001607047064A074B0B
:103E200007491A60074A0860074B1060074A6C2070
:103E3000402118601160704708080000846C084039
:103E400010100A4014100A4018100A4000100A40CE
:103E5000074A0849C12313600B60074B074A1860E3
:103E60000749084B10606C20402208601A607047B8
:103E70000C6108401061084010000E4014000E4014
:103E800018000E4000000E400C4A0D490823202067
:103E9000136008600A6813420BD10A4B082205E040
:103EA0000868024205D1023B002B02D0086802429A
:103EB000F6D0024B202119607047C04618100A4006
:103EC00000100A40102700000C4A0D49082320204A
:103ED000136008600A6813420BD10A4B082205E000
:103EE0000868024205D1023B002B02D0086802425A
:103EF000F6D0024B202119607047C04618000E40D2
:103F000000000E40102700000E4B20211A681142BD
:103F100001D00D4B19600D4A0B4910600820086054
:103F200008490B6818420BD1094B082205E00868C4
:103F3000024205D1023B002B02D008680242F6D0B3
:103F40007047C04600100A4018100A4008100A4086
:103F5000102700000E4B20211A68114201D00D4B92
:103F600019600D4A0B4910600820086008490B6869
:103F700018420BD1094B082205E00868024205D11E
:103F8000023B002B02D008680242F6D07047C046C0
:103F900000000E4018000E4008000E4010270000E0
:103FA0000E4B20201A68104201D00D4908600C4ABF
:103FB00008230A491360086803420BD1094B082201
:103FC00005E00868024205D1023B002B02D00868D8
:103FD0000242F6D004490B68D8B2704700100A407C
:103FE00018100A401027000008100A40124B202128
:103FF0001A68114201D0114B19600422002818D010
:104000000D490A600D4A08230B49136008680342F2
:104010000BD10B4B082205E00868024205D1023B98
:10402000002B02D008680242F6D006490B68D8B2CD
:10403000704702480260E5E700000E4018000E409D
:104040001027000008000E40064B20201A6810427E
:1040500001D005490860034B0349102208201A606B
:104060000860704700100A4018100A40064B2020D4
:104070001A68104201D005490860034B0349102219
:1040800008201A600860704700000E4018000E40BB
:10409000F0B55F464D4656464446F0B483B09C4664
:1040A0000CAB1C780DAD2E780EAFA34610ACB1460C
:1040B0003E7827780FAB1D7801971A4B002824D043
:1040C00019481A4F03603C6801232343184C3B6096
:1040D0001848194FA0460023036044464B4623600E
:1040E00011435B4662461C021143214339600221A1
:1040F0003143019E29433143CDB2056003B03CBC3E
:1041000090469946A246AB46F0BD0C4F0C483B602A
:10411000036801271F4307600A480B4F80460B487E
:10412000D9E7C04600080009980005402816054058
:1041300010500C4004500C4000500C4094000540BE
:104140001815054010300840003008400430084081
:1041500030B5002816D10D4D0D4B02241A681442BB
:10416000FCD0296000280BD10948102104682142A5
:10417000FCD104201A681042FCD02D68A8B230BDD2
:104180000448F2E7044D034BE7E7C0460830084017
:104190000C3008400C500C4008500C40FEE7C04664
:1041A0007047C0464F4A504B9A421FD2DF1C141D25
:1041B000381B810801318F004C4B381F4107FE1816
:1041C000C80F02CB1160B3420FD0002803D001CB3F
:1041D00001C4B34209D0181C20C8211C20C15B684F
:1041E0006360031D0C1DB342F5D1D21940488242D1
:1041F00016D2C41C131DE51AA90801318800101835
:10420000C41A0021650708D511601A1C0433116017
:10421000834205D01A1D1960131D11608342F9D124
:104220003448354988421BD20331061D8F1BBD0817
:1042300001246F1C2C40026801259047BD420FD01D
:10424000002C04D008CE02259847BD4208D0341C6B
:1042500001CC804702357668B047261DBD42F6D1B5
:10426000264B27498B421BD203311E1D8F1BBD08D5
:1042700001246F1C2C401A6801259047BD420FD0C5
:10428000002C04D001CE02258047BD4208D0341C4A
:1042900008CC984702357668B047261DBD42F6D156
:1042A000FDF7C8FD1748184988421BD20331061D87
:1042B0008F1BBD0801246F1C2C400268012590470C
:1042C000BD420FD0002C04D008CE02259847BD4235
:1042D00008D0341C01CC804702357668B047261DD3
:1042E000BD42F6D130EF002030EF00206CEC002012
:1042F00004FB00206CEC00206CEC00206CEC002037
:104300006CEC00206CEC00206CEC00204309044AAB
:1043100099008B181F210840012282401A607047C3
:1043200000E100E01F2803D8044BC018017070475B
:104330000F22034B1040C0180170F8E700E400E0C2
:1043400014ED00E002B4714649084900095C4900D7
:104350008E4402BC7047C046002934D0012300229D
:1043600010B488422CD301242407A14204D28142F4
:1043700002D209011B01F8E7E400A14204D2814204
:1043800002D249005B00F8E7884201D3401A1A4381
:104390004C08A04202D3001B5C0822438C08A042B8
:1043A00002D3001B9C082243CC08A04202D3001B6E
:1043B000DC082243002803D01B0901D00909E3E7E8
:1043C000101C10BC7047002801D00020C04307B467
:1043D000024802A14018029003BDC0461900000027
:1043E0000029F0D003B5FFF7B9FF0EBC4243891A8C
:1043F0001847C0467047C0469C460304F0B51B0CE6
:1044000017043F0C150C1E1C041C000C7E436B4350
:1044100047434543FB18300C1818874202D98027C0
:104420007B02ED18070CED1967467C434A433604BE
:10443000330CA11800044919C018F0BDF0B54F465F
:104440004646C0B40F2A72D90B1C03439C0700D008
:1044500090E0171C103F3C09013427010C683B1CFD
:104460000460103BDE064B68CD1943608C68F60F84
:104470008460CB68041CC3600B1C103310349D4255
:1044800027D0002E0BD0196821605E68666099689D
:10449000A160DE681033E66010349D4219D01968BF
:1044A00021605E6866609968A160DE68191CE6603C
:1044B0001B69261C23614C6974618B69B361CC69EB
:1044C0001031F4610B1C1036341C103310349D4233
:1044D000E5D13F180F21B846114003294DD90439C1
:1044E0008E08B3000433EC18A446043B2C1C5F0771
:1044F00008CC4146B14608C1FE0F64450FD0002EDE
:1045000003D080CC80C1644509D0271C08CF0E1C85
:1045100008C664684C603C1D311D6445F5D14946B0
:1045200001318E000327AD193A40464401E00D1CCD
:10453000061C002A1AD02F78B218F343D118012490
:10454000377001360C40013596420FD0002C05D053
:104550002B78013533700136964207D029783170B7
:104560006C780235747002369642F7D10CBC9046D6
:104570009946F0BD061C0D1CDDE73E1C0A1CD8E761
:10458000031C0A7801311A700133002AF9D17047EF
:104590000023C25C0133002AFBD1581E7047C0467D
:1045A0002076312E302E302D726331302D342D6730
:1045B000386135373564362D64697274792032304C
:1045C00032302D30352D303700000000BDDF0020A7
:1045D0000000000005C30020000000001FED0020C7
:1045E00023ED002074ED0020D7EC00200000000037
:1045F0003031323334353637383941424344454619
:10460000E08060000F0E0D0C0B0A09080706050478
:10461000030201000101010101020202020203037F
:104620000303030404040404050505050506060642
:104630000606070707070707070707070808080808
:1046400008080808080809090909090909090909E0
:104650000A0A0A0A0A0A0A0A0A0A0B0B0B0B0B0BB4
:104660000B0B0B0B0B0B0B0B0B0B0B0B0B0B0C0C98
:104670000C0C0C0C0C0C0C0C0C0C0C0C0C0C0C0C7A
:104680000C0C0C0C0C0C0C0C0C0C0C0C0C0C0C0C6A
:104690000C0C0C0C0C0C0D0D0D0D0D0D0D0D0D0D50
:1046A0000D0D0D0D0D0D0D0D0D0D0D0D0D0D0D0D3A
:1046B0000D0D0D0D0D0D0D0D0D0D0D0D0D0D0E0E28
:1046C0000E0E0E0E0E0E0E0E0E0E0E0E0E0E0E0E0A
:1046D0000E0E0E0E0E0E0E0E0E0E0E0E0F0F0F0FF6
:1046E0000F0F0F0F0F0F0F0F0F0F0F0F0F0F0F0FDA
:1046F0000F0F0F0F0F0F0F0F0F0F101010101010C4
:1047000010101010101010101010101010101010A9
:104710001010101010101010111111111111111191
:104720001111111111111111111111111111111179
:104730001111111111111111111111111111111169
:104740001111111111111111111111111111111159
:104750001111111111111111111111111111111149
:104760001111111111111111111111111111111139
:104770001111111111111111111111111111111129
:104780001111111111111111111111111111111119
:104790001111111111111111111111111111111109
:1047A00011111111121212121212121212121212ED
:1047B00012121212121212121212121212121212D9
:1047C00012121212121212121212121212121212C9
:1047D00012121212121212121212121212121212B9
:1047E00012121212121212121212121212121212A9
:1047F0001212121212121212121212121212121299
:104800001212121212121212121212121212121288
:104810001212121212121212121212121212121278
:104820001212121212121212121212121212131366
:104830001313131313131313131313131313131348
:104840001313131313131313131313131313131338
:104850001313131313131313131313131313131328
:104860001313131313131313131313130802DF0873
:1048700002BE08028B08027B080269080258000287
:1048800044000244000234000234000224000224E6
:1048900000021400021300021300021100020000C3
:1048A00041000041000040000040000008040C02EC
:1048B0000A060E0109050D030B070F000430002046
:1048C00008300020001C002000300020041C0020C4
:1048D000081C00200A060002000000400100090236
:1048E000200001010080FA0904000002FFFFFF0020
:1048F0000705810240000007050202400000002871
:1049000000000000010400010000000000000001A0
:104910000157494E555342000057494E55534200E6
:10492000000000000000003603410049005200531F
:104930000050005900200053004E003A0020002093
:104940000020002000200020002000200020002067
:104950000020002000200020002000200012010084
:104960000200000040501DA160000101020301048B
:104970000309041E037700770077002E00610069A9
:104980000072007300700079002E0063006F006DEC
:104990000012034D00530046005400310030003037
:1049A0000013000902200001010080FA0904000040
:1049B00002FFFFFF00070581020002000705020257
:1049C000000200000E034100490052005300500055
:1049D00059008E0000000001050001008400000065
:1049E00001000000280044006500760069006300B3
:1049F000650049006E007400650072006600610089
:104A000063006500470055004900440000004E0067
:104A100000007B00340041004600340031003800C3
:104A2000360035002D0042004300310045002D00C6
:104A300037003400350041002D00390038003200C5
:104A400036002D0039003700430041004100380096
:104A50004500450030003400370046007D0000006E
:104A600053ED002001000000020000000DED0020C9
:104A70008CE9002084EC00203CEE002000000000C7
:104A80008EEC0020010000000100000010EE00206C
:104A900030EE00200000000078EE0020040000004E
:104AA00040F5002000000000A0EE00200100000002
:104AB000C0F2002000000000C8EE0020040000004A
:104AC000C0F0002000000000000000000000000016
:104AD0000000000000000000000000001CEE0020AC
:104AE000C8EE002078EE002091DE00209BDE002042
:104AF00000000000000000000000000000000000B6
:104B0000020000001CEE002000000000A0EE0020CB
:104B1000000000000FDE0020000000000000000088
:104B20000000000000000000800000001CEE0020DB
:104B3000C8EE002078EE002000000000B7DE002064
:104B400000EF00200100000040F000200000000005
:104B50000000000000000000000000000000000055
:104B6000810000001CEE002000EF0020000000008B
:104B7000000000000FDE00200010002001000000F7
:104B8000302F0000000000000000000000000000C6
:104B900000600840100000000460084010000000A1
:104BA0008060084010000000846008401000000091
:104BB00088600840100000008C6008401000000071
:104BC0009060084010000000946008401000000051
:104BD00098600840100000009C6008401000000031
:104BE000A060084010000000A46008401000000011
:104BF000A860084010000000AC60084010000000F1
:104C0000B060084010000000B460084010000000D0
:104C1000B860084000000000BC60084010000000C0
:104C2000C060084010000000C460084000000000A0
:104C3000C860084010000000CC600840120000006E
:104C4000D06008401000000000610840140000001F
:104C500004610840140000000861084014000000CE
:104C60000C610840140000001061084014000000AE
:104C7000146108401400000018610840140000008E
:104C80001C61084010000000206108401400000072
:104C90002461084010000000286108401000000056
:104CA0002C61084010000000306108401000000036
:104CB00034610840000000008061084010000000DE
:104CC000846108401400000088610840140000005E
:104CD000006208401000000004620840100000005C
:104CE00008620840100000000C620840100000003C
:104CF000106208401000000014620840100000001C
:104D000018620840100000001C62084012000000F9
:104D100020620840140000002462084014000000D3
:104D20002862084014000000806208401000000063
:104D300084620840100000008862084010000000F3
:104D40008C620840100000009062084010000000D3
:104D500094620840100000009862084010000000B3
:104D60009C62084010000000006308401000000032
:104D700004630840100000000863084010000000B1
:104D80000C63084010000000106308401000000091
:104D90001463084010000000186308401000000071
:104DA0001C63084010000000206308401000000051
:104DB0002463084010000000286308401000000031
:104DC0002C63084010000000306308401000000011
:104DD0008063084010000000846308401000000059
:104DE00088630840100000008C6308401000000039
:104DF0009063084010000000946308401000000019
:104E000098630840100000009C63084010000000F8
:104E10000064084010000000046408401000000016
:104E200008640840100000000C64084010000000F6
:104E300010640840100000001464084010000000D6
:104E400018640840100000001C64084010000000B6
:104E500020640840100000000065084010000000B9
:104E600004650840100000000865084010000000BC
:104E70000C6508401000000010650840100000009C
:104E800080650840100000008465084010000000A4
:104E900088650840100000008C6508401000000084
:104EA0009065084010000000946508401000000064
:104EB00098650840100000000066084010000000DF
:104EC0000466084014000000086608401400000052
:104ED0000C66084014000000106608401000000036
:104EE000146608401000000018660840100000001A
:104EF0001C660840100000002066084010000000FA
:104F000024660840100000002866084010000000D9
:104F10002C660840100000003066084010000000B9
:104F20003466084010000000386608401000000099
:104F300080660840100000008466084010000000F1
:104F400088660840100000008C66084010000000D1
:104F500090660840100000009466084010000000B1
:104F600098660840100000009C6608401000000091
:104F7000A066084010000000A46608401000000071
:104F8000A866084010000000AC6608401000000051
:104F9000B066084010000000B46608401000000031
:104FA000B866084010000000BC6608401000000011
:104FB000C0660840100000000067084010000000B4
:104FC0000467084010000000086708401400000053
:104FD0000C67084010000000106708401000000037
:104FE0001467084010000000186708401000000017
:104FF0001C670840100000002067084010000000F7
:1050000024670840100000002867084010000000D6
:105010002C670840100000003067084010000000B6
:105020003467084010000000386708401000000096
:105030003C67084010000000806708401100000035
:1050400084670840100000008867084010000000D6
:105050008C6708401000000090670840E9000000DD
:105060009467084010000000986708401000000096
:105070009C67084010000000A06708401000000076
:10508000A467084010000000A86708401000000056
:10509000AC6708401000000003FF00001080808013
:1050A0008080808080000000BBC00000B7920000BC
:0850B000B1AC0000037E00001A
:0850B80054C6FF7F0100000057
:1050C0000430002000300020001C0020041C0020C0
:0C50D000081C0020083000200010002008
:1050DC000100000003000000416972537079204EFA
:1050EC004F53000000000000AF00AF003200000082
:1050FC0000000000FF030E04000000000C00000084
:10510C00000000000000000006000000000000008D
:10511C00000000000100000040787D01000000004C
:10512C0000E1F5059080608040A80F406375F87C25
:10513C004206000F00C0A048CC600054AE0AC0006C
:10514C00000000001800020000000000180003001E
:10515C0000000000B400020000000000000000008D
:10516C00000000000000000000000000404B4C005C
:10517C003B000000000000000000000000000000E8
:10518C0003000000D012130000000000FF03000019
:10519C000E0000000400000000000000808D5B0089
:1051AC003F0000007F000000180000000400000019
:1051BC0000000000C0C62D002000000024490000A3
:1051CC0006F00300000000000000000000401F007B
:1051DC0019000000000000000000000000000000AA
:1051EC0000000000000000000000002C0000000087
:1051FC000000000000000001000E00000000000094
:10520C000000000000000000000000000000000092
:10521C000000000000000000000000000000000082
:10522C000000000000000000000000000000000A68
:10523C002000000000000000000000000000000042
:10524C000000000000000000000000000000000052
:10525C000000000000000000000000000000000042
:10526C000000000000000000000000000000000032
:10527C000000000000000000000000000000000022
:10528C000000000000000000000000000000000012
:10529C00000000000000000C4C0000000000002C7E
:1052AC0000000001002B000000000001002A00009B
:1052BC0000000001100700000000000000000000CA
:1052CC0000000000000000000000000000000000D2
:1052DC0000000000000000000000000000000000C2
:1052EC00000000161000000000000000000000008C
:1052FC0000000000000000000000000000000000A2
:10530C000000000000000000000000000000000091
:10531C000000000000000000000000000000000081
:10532C000000000000000000000000000000000071
:10533C000000000000000000000000000100000060
:10534C0001000000416972537079204D494E4900AB
:10535C0000000000960096005A00000000000000BB
:10536C00FF000C03000000000C0000000000000017
:10537C00000000000400000000000000000000001D
:10538C000200000000366E010000000000E1F5058F
:10539C009080608040A80F406375E87C4206000F47
:1053AC0000C0A048CC600054AE0AC0000000000051
:1053BC0018000200000000001800020000000000AD
:1053CC0000000000000000000000000000000000D1
:1053DC000000000001000000C0C62D0020000000ED
:1053EC0000000000000000000000000003000000AE
:1053FC0060E3160010000000FF0000001B203000CE
:10540C000400000000000000404B4C003B0000007A
:10541C00922D000006D003000000000000000000E8
:08542C0000401F001900000000
:04000003000013A93D
:00000001FF
