:020000042000DA
:10C00000E00F002055E5002051E50020D5CC0020B0
:10C010000000000000000000000000000000000020
:10C0200000000000000000000000000051E50020BA
:10C03000000000000000000051E5002051E5002054
:10C040004DE50020D9C100204DE500200000000092
:10C050004DE500204DE500204DE500204DE5002098
:10C0600025DB00204DE500204DE500204DE50020BA
:10C070004DE500204DE500204DE500204DE5002078
:10C080004DE500204DE500204DE500204DE5002068
:10C090004DE500204DE500204DE500204DE5002058
:10C0A0004DE500204DE500204DE500204DE5002048
:10C0B0004DE500204DE500204DE500204DE5002038
:10C0C00008B503695868002801D000F015F900F0A0
:10C0D000F9F808BD054B0122196848700A70BFF3D2
:10C0E0004F8F40BF08680028FCD170476CEC0020DF
:10C0F000054B0122196848700A70BFF34F8F40BF8B
:10C1000008680028FCD1704770EC002038B5204B3F
:10C11000051C1868012245700270BFF34F8F40BFA5
:10C1200001680029FCD11B4C2368188B02F04EF8E3
:10C130002068408B02F064F86AB2002A12DA7F208D
:10C140002168054018225543081C0431CB6F483044
:10C150005919096901F020F82468201C043448307A
:10C16000E36F0DE0182321685D438A6F081C5119A5
:10C170004830096901F010F82468201CA36F48308A
:10C180005D19297D01F028F8034A0120106038BDAF
:10C1900078EC002028EF002000F0002010B5041CEF
:10C1A00001F040F80A4B0222186844700270BFF395
:10C1B0004F8F40BF01680029FCD1064C2368188BC3
:10C1C00002F004F82068808B02F01AF810BDC04617
:10C1D00078EC002028EF0020014B00221A60704705
:10C1E0003031044070B58CB000F072FC274B01ACCC
:10C1F0001868483001F04AF8254801F0B5FE01F012
:10C20000F5FA244D0020291C01F0EEFB224801F034
:10C210005FFD224801F05CFD214801F059FD2148F5
:10C2200001F056FD204801F035FC204801F032FCB9
:10C230003A202070201C01F04FFA218B002903D1F5
:10C24000606AA16A00F0C4FC0820FF2102F042FAF3
:10C250000120011C02F03EFA012002F02FFA281CF6
:10C2600001F006FC124A134B134D16681868296832
:10C2700020BF346802680B689C42F9D00F4E10480A
:10C28000A11901F0B1FD2A681460EBE728EF002046
:10C29000C1C000201CEE002048EE002068EE002007
:10C2A00058EE0020F0EE002078EE0020C8EE0020CE
:10C2B00074EC00207CEC002080EC0020004000208A
:10C2C00000EF002038B5041C00F0F6FB074D012CF0
:10C2D00006D1074801F0DEFB2878FFF717FF02E0E0
:10C2E0002878FFF75BFF034B1C7038BD00F500207A
:10C2F00000EF002004F00020014B18787047C04682
:10C3000004F0002008B543781B2B06D8054A9B0093
:10C310009B58002B04D0984703E04842484100E076
:10C32000012008BD90F3002008B5002901D100F0DC
:10C33000B7FC002008BD70B5051C00200C1E84420F
:10C340000DD16E880120B21E0B2A08D800F0EAFF3A
:10C35000300401F0C7F8A86901F053FD201C70BD3E
:10C3600038B50023994219D181880123FF2915D8B6
:10C3700044889C4212D80A4D4A0952191F25294067
:10C3800092008B401168012C01D10B4301E09943CD
:10C390000B1C1360806901F034FD0023181C38BDAC
:10C3A00000D8031038B5051C0C1E07D100F0BAFFE9
:10C3B000201C01F097F8A86901F023FD002038BD8A
:10C3C000F8B5041C00292AD1164B81881868021C74
:10C3D000763215882E1C8D4200D90E1CB2B212493D
:10C3E000402A02D8002A03D000E04022002303E0C4
:10C3F0000D60A06904220DE0934209DA18265E431D
:10C40000876F9D00BE19376901337E004E51F3E7F7
:10C41000A069920001F0E8FCE06901F0F2FC002064
:10C42000F8BDC04628EF002000F40020002238B5F7
:10C43000041C0D1E95421AD183880122FF2B16D8A9
:10C440000C4859090918880001681F200340101C76
:10C450009840031C0B40591E8B41211C237208314C
:10C46000A06901F0C1FCE06901F0CBFC2A1C101CA2
:10C4700038BDC04600D8031070B50025041C0E1E40
:10C48000AE4217D18388042B08D1C2880A4980693B
:10C4900001F0AAFCE06901F0B4FC0BE00125052BDA
:10C4A00008D1C2880549806901F09EFCE06901F06D
:10C4B000A8FC351C281C70BDAFEC002082ED0020CC
:10C4C00010B5041C002909D10172011C08318069D2
:10C4D000012201F089FCE06901F093FC002010BD0D
:10C4E00010B5041C00290AD18388012B02D100F069
:10C4F000DDFB01E000F0E4FBA06901F082FC00201C
:10C5000010BD000010B5041C00290FD1084B217983
:10C510001868483000F0E2FD211C20720831A06943
:10C52000012201F061FCE06901F06BFC002010BD0C
:10C5300028EF002010B5041C00290FD1084B2179E9
:10C540001868483000F0C1FD211C20720831A06934
:10C55000012201F049FCE06901F053FC002010BD0C
:10C5600028EF002010B5041C00290FD1084B2179B9
:10C570001868483000F0A2FD211C20720831A06923
:10C58000012201F031FCE06901F03BFC002010BD0C
:10C5900028EF002010B5041C00290FD1084B217989
:10C5A0001868483000F083FD211C20720831A06912
:10C5B000012201F019FCE06901F023FC002010BD0C
:10C5C00028EF002010B5041C00290FD1084B217959
:10C5D0001868483000F064FD211C20720831A06901
:10C5E000012201F001FCE06901F00BFC002010BD0C
:10C5F00028EF002010B5041C002905D109490422A8
:10C60000C06901F0F1FB0BE0012909D1064B054996
:10C6100018680968483000F0EFFCA06901F0F1FBF0
:10C62000002010BD88F3002028EF002070B5041C06
:10C630000020814255D1A3882A4A3F2B06D8106892
:10C6400076300188012099422ADC4AE0FA201268FB
:10C6500080005843131C76331B8899420CDA182546
:10C660004D43966F75192E69B500854202D11E4A59
:10C6700011701AE00131F0E7111C7E3109880023A6
:10C6800000E001338B420EDA151DEE6F18255D4375
:10C6900076193569AE008642F3D1802041420B43C2
:10C6A000114E337001E001201BE0FFF725FE0E4D17
:10C6B000061E012E02D12878FFF770FD2878FFF7BB
:10C6C00009FD012E02D12878FFF720FD0122211C4F
:10C6D00022720831A06901F087FBE06901F091FB4B
:10C6E000002070BD28EF002000F5002070B5041C6C
:10C6F0000020814221D1A388012083421DD8DEB2CF
:10C70000FFF7FAFD051E012D03D10C480078FFF755
:10C7100045FD301CFFF7ECFC012D03D107490878DB
:10C72000FFF7F4FC0122211C22720831A06901F0FC
:10C730005BFBE06901F065FB002070BD00F50020A7
:10C7400070B5002592B0061CA94226D107AC36234D
:10C75000201C237000F0C0FF208BA84201D00125CF
:10C760001BE0E169226A3A23201C019102922370A6
:10C7700000F0B2FF208B0028F1D1E169226A636AE0
:10C78000A46A03910492B06901A918220593069442
:10C7900001F02AFBF06901F034FB281C12B070BDD7
:10C7A00038B5051C002922D1124C00220B1980201B
:10C7B00001311A7043009942F6D10F49201C0968D3
:10C7C000083102F0B5F8201C02F0BAF80B49001944
:10C7D00002F0AEF8201C02F0B3F8021D03208243E1
:10C7E000211CA86901F000FBE86901F00AFB0020A8
:10C7F00038BDC04600F4002028EF002050E900209A
:10C80000F8B5051C002931D1C48847888288802664
:10C8100001208640B44236D83804104380230719DB
:10C82000194E5A03974217D9032C0DD90323271CFD
:10C830001F4009D1034008D1A1089A0017580133BD
:10C84000B7508B42F9D30BE000E0391CA14207D26C
:10C850000A5C72540131F9E7211C321C00F0F2FE2F
:10C86000A869311C221C01F0BFFA0BE0002001294D
:10C8700009D1EA888023081C59008A4203D8E86954
:10C8800001F0BFFA0020F8BD00F4002070B5041CD0
:10C890000D1E17D1E288012380264088A1889E4082
:10C8A000B2422AD8050480200D4341038D4224D88A
:10C8B000AE188E4221D81249E06901F095FA00F0D5
:10C8C00031FD19E00023012917D1E18880262B1CB6
:10C8D0004088A2887500A9420FD800041043802226
:10C8E0005603B04209D84518B54206D8044A00F0AC
:10C8F00069FEA06901F085FA0023181C70BDC046CE
:10C9000000F4002070B50025041C0E1EAE4214D1A8
:10C9100081880125FF2910D8094BC9B21868483011
:10C9200000F0F4FA211C2A1C20720831A06901F0E1
:10C930005BFAE06901F065FA351C281C70BDC04641
:10C9400028EF002038B5041C00200D1E854211D1AF
:10C95000A1880120FF290DD86288FF2A0AD8064B3A
:10C96000C9B21868D2B2483000F08EFAA06901F05E
:10C9700048FA281C38BDC04628EF002070B50025B5
:10C98000041C0E1EAE4211D180880125FF280DD84F
:10C99000C0B200F0C0F9211C2A1C20720831A06925
:10C9A00001F022FAE06901F02CFA351C281C70BD58
:10C9B00038B5041C00200D1E85420ED1A38801202D
:10C9C000FF2B0AD86188FF2907D8D8B2C9B200F076
:10C9D00091F9A06901F015FA281C38BD38B500237B
:10C9E000051C0C1E9C420AD140880123984206D89F
:10C9F000C0B2FFF767FCA86901F003FA231C181CFA
:10CA000038BD000038B5002399421BD1828801232C
:10CA1000FF2A17D844889C4214D80B4D5109491954
:10CA20001F252A4089009340012C03D18025AA00AC
:10CA3000891802E0A022940009190B60806901F0B6
:10CA4000E0F90023181C38BD00D8031010B5041CF1
:10CA50000020814222D1A2880120FF2A1ED810493D
:10CA600053095B181F210A409B0090401A6810422E
:10CA700003D080218A009B1801E00133FF331B683B
:10CA8000211C1840431E9841207208310122A069E0
:10CA900001F0AAF9E06901F0B4F9002010BDC04628
:10CAA00000D8031080239A00801801607047A023EB
:10CAB0009A0080180160704708B5034800F0CEFE68
:10CAC000024800F0CBFE08BD00EF0020A0EE0020E1
:10CAD0001F4B2049204800221A7008601F4B204A33
:10CAE000204821491A6058609960204A204821490D
:10CAF000DA6018615961204A204821499A61D86159
:10CB00001962204A204821495A629862D962204A13
:10CB1000204821491A6358639963204A20482149D3
:10CB2000DA63214A18645964204821499A64214AE9
:10CB3000D8641965204821495A65214A9865D96504
:10CB40001A6620482049214A58669966DA66704775
:10CB500000F5002088F3002000E1F50590F30020A7
:10CB600029C30020DDC90020B1C900207DC90020F3
:10CB700045C9002005C90020A5C300208DC800209C
:10CB800001C80020C1C40020A1C7002041C7002067
:10CB90002DC60020F5C50020C5C5002095C5002084
:10CBA00065C5002035C5002005C5002079C40020DA
:10CBB000E1C4002005CA00204DCA002061C3002046
:10CBC0002DC40020C1C30020EDC6002037C30020C3
:10CBD000F0B52D4B050E2C091E5D0F2425402B4A68
:10CBE0005F5DFF25967517762E04071C37403D0CB8
:10CBF0002F09DF5D25405D5D9776FF2715773D02A4
:10CC000005402F0A3D095D5D2740BC469577654686
:10CC10005D5D571CFD77C7B23D095D5D2040185C26
:10CC2000D71CFD77571DF877080E05095D5DD71DE8
:10CC30002040185CFD770E40171C350C28373870E3
:10CC40002F09D85D161C2A3630702540FF265D5D01
:10CC5000171C300208402C373D70070A3E09985DCA
:10CC6000151C2740DF5D2E35161C28703036CDB2DE
:10CC700037700C402E099F5D101C195D3230343224
:10CC800007701170F0BDC046A0E90020D7EC00206D
:10CC90000023834202D0C0460133FAE77047000008
:10CCA000014B01221A60FEE70031054008B58021E2
:10CCB00002488901FFF7F6FE08BDC04604600F4038
:10CCC00008B5802102488901FFF7F1FE08BDC04682
:10CCD00004600F40042475462C4202D0EFF3098013
:10CCE00002E0EFF30880FFE7014B186000BEFEE7AB
:10CCF00040F7002038B50C1C051C01F09DFAC0203F
:10CD000001F0DAFA281C01F0D7FA201C01F0D4FA5D
:10CD100001F072FB38BD10B5041C01F08DFAC02083
:10CD200001F0CAFA201C01F0C7FA01F085FAC1200F
:10CD300001F0C2FA01F00CFB041C01F05DFB201CA9
:10CD400010BD000038B50C4B051C18680C1C020601
:10CD500010D50A490A78002A0CD101F08DFA342046
:10CD600001F0D0FA281C01F0CDFA201C01F0CAFA1B
:10CD700001F054FB38BDC04604620F402CEF002088
:10CD80000021312806D9044A32381421904201D8B2
:10CD9000024B195C081C704757020000C4E90020D0
:10CDA00038B50E4B051C1868020616D50C490C78D0
:10CDB000002C12D101F060FA342001F0A3FA052012
:10CDC00001F0A0FA285D013401F09CFA1B2CF9D186
:10CDD000002001F097FA01F021FB38BD04620F40FA
:10CDE0002CEF0020F8B5254B161C1A6880240D1C6A
:10CDF00014400CD0224900240F78002F07D10CE0FA
:10CE0000671F1D2F06D80219D3792B550134B44260
:10CE1000F6DB32E001214B42F7E701F02DFA352035
:10CE200001F070FA174C012E0ED8381C01F0B6FA3A
:10CE30000F2606400709A25DF8B2245C11012143C8
:10CE4000297001F0EBFA18E02F1C731E781B984232
:10CE50000DDA012001F0A2FA0F230340E25C000981
:10CE6000C3B21101E25C114339700137EDE70020D4
:10CE7000AD1901F093FA013DDAE7F8BD04620F4005
:10CE80002CEF00205BEC00200E4B70B5061C1868E0
:10CE90000D1C141C020603D50B490A78002A02D087
:10CEA0007619F47170BD01F0E7F9342001F02AFA27
:10CEB000281C01F027FA201C01F024FA01F0AEFA38
:10CEC000EEE7C04604620F402CEF002008B54B1F70
:10CED0001D2B02D8C3181B7B01E001235B42934248
:10CEE00001D0FFF7D1FF002008BD10B54C1F1D2C4D
:10CEF00008D80419247B9C431340221C1A43FFF7D3
:10CF0000E5FF01E00120404210BD000038B5044DAE
:10CF10004A1C0C1CD2B2291CFFF764FF285D38BDE7
:10CF200044F70020F7B50568041C0E1C00235F1CA5
:10CF3000311C2F4AB94088182E49884203D93B1E1C
:10CF4000052BF4D100E01F1C7A01D2B2201C102165
:10CF5000E023FFF7CAFF002848DB0137690C6808A7
:10CF6000BE40019000917018291C01F0CDFB031CFC
:10CF70000D3BDAB2071C90088100531A9A01801801
:10CF8000C2B21421201CFFF7A1FF00282EDBFFB244
:10CF90007D43761B04D10822201C1221131C23E0A0
:10CFA000009D002776193B1C019ADA40964206D371
:10CFB0008021080218410743BFB2B61A02D00133DC
:10CFC000102BF1D1FAB2201C1521FFF77FFF0028AA
:10CFD0000CDB3A0A201C1621FFF778FF002805DB3E
:10CFE000201C122100220823FFF77FFFFEBDC04650
:10CFF00080F17F968038F57EF8B5264B244A041CD4
:10D000000D1C8768081C002101F0CEFB081CFFF7EF
:10D01000B7FE03267043204908230E183278201CDF
:10D020001721FFF762FF00282EDB7278201C1A21DF
:10D03000C323FFF75AFF002826DBB278201C1B21F0
:10D04000FFF744FF00281FDB201C102108220B23C0
:10D05000FFF74BFF002817DB201C082100223F238D
:10D06000FFF743FF00280FDB201C092100223F238C
:10D07000FFF73BFF002807DBE919201CFFF752FFF1
:10D08000002801DB65600020F8BDC046C046C046F0
:10D09000C7100000000000001CEC0020C046C04685
:10D0A00008B50A1C0F230521FFF71FFF08BD08B5AF
:10D0B0000A1C0F230721FFF718FF08BD08B50A1C3B
:10D0C0000F230C21FFF711FF08BD08B54A424A4162
:10D0D000120105211023FFF708FF08BD08B50A1E3D
:10D0E00000D0102207211023FFF7FFFE08BD00002B
:10D0F00037B5041C0525201C0B2108226023FFF7EF
:10D10000F4FE002843DB0422201C0F21131CFFF730
:10D11000ECFE00283BDB201C102100220323FFF73C
:10D12000E4FE002833DB201C1949FFF7FBFE002832
:10D130002DDB1022201C0B21131CFFF7D6FE00282C
:10D1400025DB1448FFF7A4FD201C0B21002210232F
:10D15000FFF7CBFE00281ADB201C0F21002204233E
:10D16000FFF7C3FE002812DB201C05226946FFF7EB
:10D1700039FE6B461A790F20104001D00F2805D1D7
:10D18000013D002DB7D10121484200E000203EBD05
:10D1900000C63E051027000038B50E4B041C0022C7
:10D1A00081600C301A70FFF7FBFD6168201CFFF7EF
:10D1B00023FF201C6568FFF79BFF6560002803DAEA
:10D1C000201CFFF795FF6560291C201CFFF714FF4A
:10D1D00038BDC0462CEF0020F0B5114F87B001AE2E
:10D1E000041C0D1C301C391C042201F0FFFA391DEF
:10D1F00002A8102201F0FAFA0F202B0902A905401B
:10D20000F65C4A5DB02506432A43201C0A21FFF73D
:10D210005DFE201C0B21321CFFF758FE07B0F0BD4D
:10D22000B0E9002008B50520A021FFF78BFD0620FE
:10D23000D021FFF787FD07200021FFF783FD08209D
:10D240004021FFF77FFD0920C021FFF77BFD0A2069
:10D250007021FFF777FD0C20A021FFF773FD0F2051
:10D260002A21FFF76FFD11200321FFF76BFD172027
:10D27000F421FFF767FD19200C21FFF763FD024B36
:10D28000012200201A7008BD2CEF002008B5044BC5
:10D2900000220C301A70FFF783FDFFF7C3FF08BDB3
:10D2A0002CEF002070B50B4D80242401281C211C7C
:10D2B000FFF7FDFB0521002001F022F9FF210020EE
:10D2C00001F01EF9211C061C281CFFF7EBFBF0B235
:10D2D00070BDC04614600F4070B5114D802424010C
:10D2E000281C211CFFF7E3FBAB21002001F008F90B
:10D2F000FF21002001F004F9FF21002001F000F9D6
:10D30000FF21002001F0FCF8FF21002001F0F8F8D7
:10D31000211C061C281CFFF7C5FBF0B270BDC046DF
:10D3200014600F40F0B58022314B900387B0186035
:10D33000F221304800F048FF2F48F02100F044FF70
:10D340002E48F02100F040FF2D48F02100F03CFF76
:10D350002C48F42100F038FF2B48F42100F034FF72
:10D360002748F52100F030FF2648F52100F02CFF7A
:10D370002048F22100F028FF1F48F02100F024FF90
:10D38000224D1E48F021C02700F01EFF204C1E48F1
:10D39000F4213F02802600F017FF3601281C391CBB
:10D3A000FFF780FB311C201CFFF77CFB2968022063
:10D3B0000F432F6022680025164326602B1C009027
:10D3C0000190029503950495281C07212A1C01F061
:10D3D00037F8104B1D701F1C3C78132C05D0152CF2
:10D3E00003D0FFF779FF3870F6E707B0F0BDC0460D
:10D3F000043105408C610840906108409461084008
:10D40000986108409C610840A061084004600F409A
:10D4100014600F4064F70020802138B50901051C15
:10D420002048FFF744FB204B1878132819D100201F
:10D430004B2101F065F804240020FF21013C01F09C
:10D440005FF8002CF8D10020FF2101F059F8285591
:10D450000134082CF7D1802212481101FFF722FB7A
:10D4600038BD1528F7D14B21002001F049F80020E4
:10D47000011C01F045F80121002001F041F80221D2
:10D48000002001F03DF80020FF2101F039F80024D0
:10D490000020FF2101F034F828550134082CF7D181
:10D4A000D9E7C04614600F4064F7002008B5FFF7C5
:10D4B000F9FEC307FBD408BD38B5094D802424010B
:10D4C000FFF7F4FF281C211CFFF7F1FA06210020CA
:10D4D00001F016F8281C211CFFF7E4FA38BDC046FD
:10D4E00014600F4038B5174D0023041C2B702878AA
:10D4F000132805D0152803D0FFF7EEFE2870F6E7B5
:10D50000FFF7DAFFFFF7D2FF80210F480901FFF78D
:10D51000CEFAD821002000F0F3FF2202110E2504DC
:10D52000002000F0EDFF290E002000F0E9FFE1B23D
:10D530000020802400F0E4FF03482101FFF7B2FA45
:10D5400038BDC04664F7002014600F40F8B5C7B27C
:10D55000161C8023CA19041C0D1C580082422ED8A8
:10D5600080214A03531B9C4229D8FFF7A5FFFFF7F0
:10D570009DFF802112480901FFF799FA022100203E
:10D5800000F0BEFF2002010E2404002000F0B8FFCE
:10D59000210E002000F0B4FFB9B2002000F0B0FF6F
:10D5A000341CA71BAF4205DA2178002000F0A8FF49
:10D5B0000134F6E7802502482901FFF773FAF8BD28
:10D5C00014600F40F8B5041C0D1C171CFFF784FEF7
:10D5D000132801D01528F9D18023580385422FD86C
:10D5E00084422DD82A1982422AD880267300E1B2BB
:10D5F000581A86B2B54202D2AEB2002E07D0201C15
:10D600003A1C311CFFF7A2FFA419BF19AD1B261C41
:10D610003A1B611992198B1BFF2B07D98021301CF3
:10D6200049000136FFF792FFFF36F1E7280A0602AC
:10D63000EDB23019BA19002D02D0A9B2FFF786FF5A
:10D64000F8BD0000F8B58023051C0E1C141C5803FF
:10D65000814231D885422FD84A1982422CD8FFF70F
:10D6600025FF802115480901FFF721FA0B21002031
:10D6700000F046FF290C002000F042FFFF27290A96
:10D680003940002000F03CFF291C3940002000F008
:10D6900037FF0020391C00F033FFA519AC4206D03B
:10D6A0000020FF2100F02CFF20700134F6E78024D9
:10D6B00002482101FFF7F6F9F8BDC04614600F409B
:10D6C000034B044918684018431E98417047C046F0
:10D6D0000001401088A9CBED38B5041CFFF7F0FF1E
:10D6E000051E06D0104D211C18312A68201C9047B9
:10D6F00018E0FFF717FE2378362B08D03A2B0ED10F
:10D70000201CE56125622430FFF786FE05E0074A0C
:10D7100007481368E36101682162258302E08020E5
:10D7200041002183208B38BD0001401000320440AD
:10D7300000500440074B0849084A1860084B08602D
:10D740001060196801401960064B1A681040186093
:10D750007047C046786100407C61004044610040F1
:10D76000AC610040BC610040044B19680142FBD130
:10D77000034B18601A680242FCD17047B061004048
:10D78000B46100400C4A0D4B11680D4819401160FE
:10D7900002681A4002600B480B4A01681940016098
:10D7A000106818401060094A094811681940116052
:10D7B0000268134003607047C06100407FFF7FFF35
:10D7C000C4610040C8610040CC610040D0610040AD
:10D7D000D46100400F2203061040D90F40000B18FF
:10D7E000014A99018818704700F80020054A8023F3
:10D7F0009802002110601160034A13680342FBD0B5
:10D800007047C046003105405031054038B50469C5
:10D810000D1C201CFFF7DEFFC368C0229343856008
:10D82000C3600F20204001218140034D0B1C2006C6
:10D8300000D50B042B6038BDB0610040026938B5DB
:10D84000041C0F25154000F06DFA23690120A84043
:10D850001A0600D50004FFF787FF38BD036910B52D
:10D860000F21041C1048194080220918134205D0CA
:10D87000890008680D4B03400B6003E08B001868BB
:10D8800090431860201C00F04DFA21690F220A40D5
:10D8900001209040090600D50004FFF74BFF201C33
:10D8A000FFF7CCFF10BDC04670180010FFFF7FFFD0
:10D8B00010B504690F23234007490122200603D530
:10D8C0009A400868140402E09A400868141C20403A
:10D8D000431E984110BDC046B8610040F8B50369C9
:10D8E0000A60161C0F22051C1A40134801211C0651
:10D8F00003D5914004680F0402E0914004680F1CB6
:10D900003C40621E9441002C15D10C4C80202268B2
:10D91000C7013A432260281CFFF7CAFF2168394239
:10D92000F3D02268064B13402360002803D1281C43
:10D93000311CFFF76BFFF8BDB06100404061004053
:10D94000FFBFFFFF38B5051C0C1C281CFFF7B0FFFC
:10D950000028FAD10123281C2360211CFFF756FF61
:10D9600038BD000002690F230448134019188B00CA
:10D970001A68034802431A607047C04670180010C6
:10D9800001000100084B021C196801208A420AD1DB
:10D990000648C02302681905F820114002068818BD
:10D9A000434258410130704740F3002084610040F9
:10D9B000034B1A68904202D1024849060160704741
:10D9C00040F3002054610040054B1A68904205D195
:10D9D000480680214A04034B02431A607047C04640
:10D9E00040F300205461004008B500282BD11648B0
:10D9F000164B0268196020218A430260FFF7C2FEBD
:10DA000001235842FFF796FE01204042FFF7ACFE8B
:10DA10000F4B01211A6802208A431A6018601868A7
:10DA200002210B4A0842FAD10A4B092019600A491F
:10DA30000A4B086010680A490340136009480A4A03
:10DA40000A4B0A60186008BD0430044040F300200F
:10DA500040610040A8610040A4610040FFFF00FF5A
:10DA6000586100404701000000F800204861004074
:10DA700008B5064B1968884202D1082000F01EFE46
:10DA80000348012302681A43026008BD40F30020E6
:10DA900040610040F8B5041CFFF7D0FE63691868C8
:10DAA000C779201C00F041FA051E06D000F052FA9A
:10DAB000071C281C00F054FA051C2669301CFFF7CF
:10DAC00089FE6B426B4180223904DF0393051943C1
:10DAD0003943016001270021C16041600161876015
:10DAE00041618161C161016244620F240B4834408D
:10DAF0002218930019680A4CAF00AD043D430C4056
:10DB000025431D60320603D5C0221868160401E0C3
:10DB10001E68C02006431E60F8BDC0467018001085
:10DB2000F3FFF3FFF0B55D4B5D4A1968106885B0EF
:10DB300001400091196000D1ADE0CB0718D40098E6
:10DB4000420600D4A7E0574E012437680125FFF7AD
:10DB500019FE6042FFF7EEFD6842FFF705FE381C34
:10DB60000021FFF725FF381C002100F003FA92E0A6
:10DB70004D4F00263B680393B3425DD14B4E0024CA
:10DB80003768A74270D1DAE7301CFFF723FE446AFA
:10DB9000002C58D0206A002855D02369181C019306
:10DBA000FFF718FE011C28310A78051C2270293560
:10DBB0002B78011C63702A310A78051CA2702B3562
:10DBC0002B78011CE3702C310A78051C22712D354D
:10DBD0002B78011C63712E310A782F30A2710078E6
:10DBE000A569E0710198FFF7F5FD031C283319784A
:10DBF000021C297029321378011C6B702A310A78B3
:10DC0000031CAA702B331978021CE9702C3213788C
:10DC1000011C2B712D310A78031C6A712E3319787F
:10DC20002F30A9710078E871029D226A3D60201CA6
:10DC300090470136062EA1D00121039AB1400291EE
:10DC40000A42F6D0A0E7029D3D60F2E73560201C55
:10DC5000FFF7C0FD406A00280BD129040F420DD107
:10DC60000134062C00D16AE70125A5402F42F4D0EB
:10DC7000ECE7436A002BF0D09847EEE7201C3160B8
:10DC80008030FFF7A7FD406A0028E9D0426A002AE9
:10DC9000E6D09047E4E705B0F0BDC04644610040DF
:10DCA0004861004040F30020AC610040BC6100408E
:10DCB00003690F211A060B40D00F5B001A180349A5
:10DCC00090004058002800D1FEE7704744F3002040
:10DCD000036870B51C690F2221061440CD0F660041
:10DCE000AC190E4BA100CA58002A00D0FEE7C8505C
:10DCF000816844680B1C651EAA4206D280331E1C34
:10DD0000803E336070660132F6E7054D00236219EC
:10DD1000D6018C192360606670BDC04644F30020B4
:10DD2000FFFFFF0108B5FFF7C3FF72B6C368002B02
:10DD300007D0C36819685A6EC16091681960936012
:10DD4000F4E762B608BD000038B50C1C151CFFF7DF
:10DD5000AFFF8368002B42D072B683680022196837
:10DD600081601A6062B6012119641E492A040A43BF
:10DD70005A64802251016218110B0A0380219C64AD
:10DD8000DA648A01A1180A0B1103C02219659101F6
:10DD90006218110B0A0380215A65CA01A418210BCD
:10DDA0000A039A651D6672B65D6EEC68002C0DD094
:10DDB000E9680A68002A01D0111CFAE71A1C0B60F6
:10DDC000006840314032FFF789FD05E0191CEB6027
:10DDD00000684031FFF7B6FD62B6002001E0012087
:10DDE000404238BD8080000070B5061C0D1C141C1C
:10DDF000301C291C221CFFF7A7FF0130F8D000209F
:10DE000070BD08B500210A1CFFF7EEFF08BD10B574
:10DE1000FFF74EFF002800D1FEE7C368002B10D0AB
:10DE20005A6C68210A4200D0FEE7110609D41A682C
:10DE3000596EC26072B68C681C608B6062B6131C2F
:10DE4000ECE710BD10B502786023041C1340402B92
:10DE50000FD006D8002B09D0202B12D10B484268D6
:10DE600009E0602B0DD1094BDA6804E0074A12681B
:10DE700001E006488268002A03D0201C9047002851
:10DE800002D0201CFFF76EFD10BDC0467CE90020CB
:10DE900008B50021FFF7D6FF08BD10B50378041CB4
:10DEA000DA090221002A00D10121FFF7CBFF201C53
:10DEB000FFF7ADFF10BD10B50378041CDA0901218E
:10DEC000002A00D10221FFF7BDFF201CFFF79FFFB2
:10DED00010BD10B5041CC38848780A78022801D008
:10DEE000072803D1CA78887812020243A0699A42AF
:10DEF00000D91A1CFFF778FFE069FFF782FF0020C6
:10DF000010BD436970B5DD68002408CD002B0AD030
:10DF10001E7A8E42F9D1944203D11968FFF7D9FFD6
:10DF200002E00134F1E7012070BD436910B51B69BF
:10DF3000021C002B0CD018680378002B08D0417805
:10DF4000052903D181781469A14202D0C018F3E7F2
:10DF5000181C10BD427903791102081C1843704740
:10DF6000C078032318407047014B18607047C046C3
:10DF700074F3002070B5041C0D1E0ED0C668002E70
:10DF800018D0FFF7FFFC08CE002B13D01A7A82427C
:10DF9000F9D15968A942F6D100E00B1C20698342EF
:10DFA00000D02361044B1D68002D01D0201CA84720
:10DFB000012000E0002070BD74F30020F8B5041CBF
:10DFC00040780E1C0B2800D9EAE000F093FB062AEB
:10DFD000E93EE9AF70E9CCBA53630025A94200D00D
:10DFE000DFE022781F210A40012A16D0AA4211D070
:10DFF000022A00D0D5E0A7886B480F233B401E18AB
:10E00000B1000F68694B6A493B40581E83410B8041
:10E01000A0693BE0A069674901E0A0696649022266
:10E0200034E00025A94200D0BBE022781F21114036
:10E03000022900D0B5E0A7885B480F233B401E189B
:10E04000B7003A685D48104012E00025A94200D0B0
:10E05000A7E027781F203840022800D0A1E0A6883A
:10E060000F225149324053189F0038684F4E3043B9
:10E07000386018E00025A94200D092E022781F20E5
:10E080000240012A00D08CE0A0694D49FFF7ACFEA8
:10E09000E06909E00025A94200D082E022781F2330
:10E0A0001340012B7DD1A069FFF7ABFE79E0002979
:10E0B0005BD1E0780138062872D800F01BFB04071A
:10E0C0002171711013006169096823E06069FFF72D
:10E0D00059FCA278011C201C02290AD10DE06369B9
:10E0E000996817E06069FFF74DFCA278022802D119
:10E0F000201C012101E0201C0221FFF702FF0CE09F
:10E10000A078EE2802D1201C2E4904E06769002681
:10E110007D6807E0201CFFF7DCFE051C41E086421D
:10E12000F8D0013602CD0029F9D139E000291CD1FF
:10E13000A1786069FFF748FCA069FFF762FE351C13
:10E140002FE0002911D1A7786069391CFFF712FF71
:10E150000125002825D0002F03D16069311CFFF76D
:10E1600027FCA06918E0002904D00222B2429B419A
:10E170005D4216E0E1880125A94212D16569267247
:10E180002E69002E01D072682272211C0831A0690C
:10E190000122FFF729FEE069FFF733FE002500E0CA
:10E1A0000125281CF8BDC0467018001001000100B0
:10E1B00000FB00207AF3002078F30020FEFFFEFF32
:10E1C0007CF3002041ED002001607047064A074BB8
:10E1D00007491A60074A0860074B1060074A6C201D
:10E1E000402118601160704708080000846C0840E6
:10E1F00010100A4014100A4018100A4000100A407B
:10E20000074A0849C12313600B60074B074A18608F
:10E210000749084B10606C20402208601A60704764
:10E220000C6108401061084010000E4014000E40C0
:10E2300018000E4000000E400C4A0D490823202013
:10E24000136008600A6813420BD10A4B082205E0EC
:10E250000868024205D1023B002B02D00868024246
:10E26000F6D0024B202119607047C04618100A40B2
:10E2700000100A40102700000C4A0D4908232020F6
:10E28000136008600A6813420BD10A4B082205E0AC
:10E290000868024205D1023B002B02D00868024206
:10E2A000F6D0024B202119607047C04618000E407E
:10E2B00000000E40102700000E4B20211A6811426A
:10E2C00001D00D4B19600D4A0B4910600820086001
:10E2D00008490B6818420BD1094B082205E0086871
:10E2E000024205D1023B002B02D008680242F6D060
:10E2F0007047C04600100A4018100A4008100A4033
:10E30000102700000E4B20211A68114201D00D4B3E
:10E3100019600D4A0B4910600820086008490B6815
:10E3200018420BD1094B082205E00868024205D1CA
:10E33000023B002B02D008680242F6D07047C0466C
:10E3400000000E4018000E4008000E40102700008C
:10E350000E4B20201A68104201D00D4908600C4A6B
:10E3600008230A491360086803420BD1094B0822AD
:10E3700005E00868024205D1023B002B02D0086884
:10E380000242F6D004490B68D8B2704700100A4028
:10E3900018100A401027000008100A40124B2021D4
:10E3A0001A68114201D0114B19600422002818D0BC
:10E3B0000D490A600D4A08230B491360086803429F
:10E3C0000BD10B4B082205E00868024205D1023B45
:10E3D000002B02D008680242F6D006490B68D8B27A
:10E3E000704702480260E5E700000E4018000E404A
:10E3F0001027000008000E40064B20201A6810422B
:10E4000001D005490860034B0349102208201A6017
:10E410000860704700100A4018100A40064B202080
:10E420001A68104201D005490860034B03491022C5
:10E4300008201A600860704700000E4018000E4067
:10E44000F0B55F464D4656464446F0B483B09C4610
:10E450000CAB1C780DAD2E780EAFA34610ACB146B8
:10E460003E7827780FAB1D7801971A4B002824D0EF
:10E4700019481A4F03603C6801232343184C3B6042
:10E480001848194FA0460023036044464B462360BA
:10E4900011435B4662461C0211432143396002214D
:10E4A0003143019E29433143CDB2056003B03CBCEA
:10E4B00090469946A246AB46F0BD0C4F0C483B60D7
:10E4C000036801271F4307600A480B4F80460B482B
:10E4D000D9E7C04600080009980005402816054005
:10E4E00010500C4004500C4000500C40940005406B
:10E4F000181505401030084000300840043008402E
:10E5000030B5002816D10D4D0D4B02241A68144267
:10E51000FCD0296000280BD1094810210468214251
:10E52000FCD104201A681042FCD02D68A8B230BD7E
:10E530000448F2E7044D034BE7E7C04608300840C3
:10E540000C3008400C500C4008500C40FEE7C04610
:10E550007047C0464F4A504B9A421FD2DF1C141DD1
:10E56000381B810801318F004C4B381F4107FE18C2
:10E57000C80F02CB1160B3420FD0002803D001CBEB
:10E5800001C4B34209D0181C20C8211C20C15B68FB
:10E590006360031D0C1DB342F5D1D219404882427D
:10E5A00016D2C41C131DE51AA908013188001018E1
:10E5B000C41A0021650708D511601A1C04331160C4
:10E5C000834205D01A1D1960131D11608342F9D1D1
:10E5D0003448354988421BD20331061D8F1BBD08C4
:10E5E00001246F1C2C40026801259047BD420FD0CA
:10E5F000002C04D008CE02259847BD4208D0341C18
:10E6000001CC804702357668B047261DBD42F6D161
:10E61000264B27498B421BD203311E1D8F1BBD0881
:10E6200001246F1C2C401A6801259047BD420FD071
:10E63000002C04D001CE02258047BD4208D0341CF6
:10E6400008CC984702357668B047261DBD42F6D102
:10E65000FDF7C8FD1748184988421BD20331061D33
:10E660008F1BBD0801246F1C2C40026801259047B8
:10E67000BD420FD0002C04D008CE02259847BD42E1
:10E6800008D0341C01CC804702357668B047261D7F
:10E69000BD42F6D130EF002030EF00206CEC0020BE
:10E6A00004FB00206CEC00206CEC00206CEC0020E3
:10E6B0006CEC00206CEC00206CEC00204309044A58
:10E6C00099008B181F210840012282401A60704770
:10E6D00000E100E01F2803D8044BC0180170704708
:10E6E0000F22034B1040C0180170F8E700E400E06F
:10E6F00014ED00E002B4714649084900095C490084
:10E700008E4402BC7047C046002934D00123002249
:10E7100010B488422CD301242407A14204D28142A0
:10E7200002D209011B01F8E7E400A14204D28142B0
:10E7300002D249005B00F8E7884201D3401A1A432D
:10E740004C08A04202D3001B5C0822438C08A04264
:10E7500002D3001B9C082243CC08A04202D3001B1A
:10E76000DC082243002803D01B0901D00909E3E794
:10E77000101C10BC7047002801D00020C04307B413
:10E78000024802A14018029003BDC04619000000D3
:10E790000029F0D003B5FFF7B9FF0EBC4243891A38
:10E7A0001847C0467047C0469C460304F0B51B0C92
:10E7B00017043F0C150C1E1C041C000C7E436B43FD
:10E7C00047434543FB18300C1818874202D980276D
:10E7D0007B02ED18070CED1967467C434A4336046B
:10E7E000330CA11800044919C018F0BDF0B54F460C
:10E7F0004646C0B40F2A72D90B1C03439C0700D0B5
:10E8000090E0171C103F3C09013427010C683B1CA9
:10E810000460103BDE064B68CD1943608C68F60F30
:10E820008460CB68041CC3600B1C103310349D4201
:10E8300027D0002E0BD0196821605E686660996849
:10E84000A160DE681033E66010349D4219D019686B
:10E8500021605E6866609968A160DE68191CE660E8
:10E860001B69261C23614C6974618B69B361CC6997
:10E870001031F4610B1C1036341C103310349D42DF
:10E88000E5D13F180F21B846114003294DD904396D
:10E890008E08B3000433EC18A446043B2C1C5F071D
:10E8A00008CC4146B14608C1FE0F64450FD0002E8A
:10E8B00003D080CC80C1644509D0271C08CF0E1C32
:10E8C00008C664684C603C1D311D6445F5D149465D
:10E8D00001318E000327AD193A40464401E00D1C7A
:10E8E000061C002A1AD02F78B218F343D11801243D
:10E8F000377001360C40013596420FD0002C05D000
:10E900002B78013533700136964207D02978317063
:10E910006C780235747002369642F7D10CBC904682
:10E920009946F0BD061C0D1CDDE73E1C0A1CD8E70D
:10E93000031C0A7801311A700133002AF9D170479B
:10E940000023C25C0133002AFBD1581E7047C04629
:10E950002076312E302E302D726331302D342D67DC
:10E96000386135373564362D6469727479203230F8
:10E9700032302D30352D303700000000BDDF002053
:10E980000000000005C30020000000001FED002073
:10E9900023ED002074ED0020D7EC002000000000E3
:10E9A00030313233343536373839414243444546C5
:10E9B000E08060000F0E0D0C0B0A09080706050425
:10E9C000030201000101010101020202020203032C
:10E9D00003030304040404040505050505060606EF
:10E9E00006060707070707070707070708080808B5
:10E9F000080808080808090909090909090909098D
:10EA00000A0A0A0A0A0A0A0A0A0A0B0B0B0B0B0B60
:10EA10000B0B0B0B0B0B0B0B0B0B0B0B0B0B0C0C44
:10EA20000C0C0C0C0C0C0C0C0C0C0C0C0C0C0C0C26
:10EA30000C0C0C0C0C0C0C0C0C0C0C0C0C0C0C0C16
:10EA40000C0C0C0C0C0C0D0D0D0D0D0D0D0D0D0DFC
:10EA50000D0D0D0D0D0D0D0D0D0D0D0D0D0D0D0DE6
:10EA60000D0D0D0D0D0D0D0D0D0D0D0D0D0D0E0ED4
:10EA70000E0E0E0E0E0E0E0E0E0E0E0E0E0E0E0EB6
:10EA80000E0E0E0E0E0E0E0E0E0E0E0E0F0F0F0FA2
:10EA90000F0F0F0F0F0F0F0F0F0F0F0F0F0F0F0F86
:10EAA0000F0F0F0F0F0F0F0F0F0F10101010101070
:10EAB0001010101010101010101010101010101056
:10EAC000101010101010101011111111111111113E
:10EAD0001111111111111111111111111111111126
:10EAE0001111111111111111111111111111111116
:10EAF0001111111111111111111111111111111106
:10EB000011111111111111111111111111111111F5
:10EB100011111111111111111111111111111111E5
:10EB200011111111111111111111111111111111D5
:10EB300011111111111111111111111111111111C5
:10EB400011111111111111111111111111111111B5
:10EB50001111111112121212121212121212121299
:10EB60001212121212121212121212121212121285
:10EB70001212121212121212121212121212121275
:10EB80001212121212121212121212121212121265
:10EB90001212121212121212121212121212121255
:10EBA0001212121212121212121212121212121245
:10EBB0001212121212121212121212121212121235
:10EBC0001212121212121212121212121212121225
:10EBD0001212121212121212121212121212131313
:10EBE00013131313131313131313131313131313F5
:10EBF00013131313131313131313131313131313E5
:10EC000013131313131313131313131313131313D4
:10EC10001313131313131313131313130802DF081F
:10EC200002BE08028B08027B080269080258000233
:10EC30004400024400023400023400022400022492
:10EC4000000214000213000213000211000200006F
:10EC500041000041000040000040000008040C0298
:0CEC60000A060E0109050D030B070F004A
:10EC6C000430002008300020001C00200030002060
:10EC7C00041C0020081C00200A06000200000040B2
:10EC8C0001000902200001010080FA0904000002C1
:10EC9C00FFFFFF000705810240000007050202404C
:10ECAC00000000280000000001040001000000002A
:10ECBC00000000010157494E555342000057494E80
:10ECCC00555342000000000000000036034100498B
:10ECDC00005200530050005900200053004E003ADF
:10ECEC000020002000200020002000200020002018
:10ECFC000020002000200020002000200020002008
:10ED0C00001201000200000040501DA16000010132
:10ED1C00020301040309041E037700770077002E19
:10ED2C00006100690072007300700079002E0063AE
:10ED3C00006F006D0012034D00530046005400316B
:10ED4C00003000300013000902200001010080FA9D
:10ED5C000904000002FFFFFF00070581020002000A
:10ED6C0007050202000200000E0341004900520098
:10ED7C005300500059008E000000000105000100F6
:10ED8C0084000000010000002800440065007600AB
:10ED9C0069006300650049006E0074006500720034
:10EDAC00660061006300650047005500490044009F
:10EDBC0000004E0000007B0034004100460034008F
:10EDCC0031003800360035002D0042004300310080
:10EDDC0045002D0037003400350041002D0039006E
:10EDEC003800320036002D00390037004300410056
:10EDFC004100380045004500300034003700460023
:10EE0C007D00000053ED0020010000000200000016
:10EE1C000DED00208CE9002084EC00203CEE00205D
:10EE2C00000000008EEC002001000000010000003A
:10EE3C0010EE002030EE00200000000078EE0020E4
:10EE4C000400000040F5002000000000A0EE0020AF
:10EE5C0001000000C0F2002000000000C8EE0020FD
:10EE6C0004000000C0F000200000000000000000C2
:10EE7C000000000000000000000000000000000086
:10EE8C001CEE0020C8EE002078EE002091DE002061
:10EE9C009BDE0020000000000000000000000000CD
:10EEAC0000000000020000001CEE0020000000002A
:10EEBC00A0EE0020000000000FDE0020000000008B
:10EECC0000000000000000000000000080000000B6
:10EEDC001CEE0020C8EE002078EE002000000000A0
:10EEEC00B7DE002000EF00200100000040F0002001
:10EEFC000000000000000000000000000000000006
:10EF0C0000000000810000001CEE002000EF00203B
:10EF1C0000000000000000000FDE002000100020A8
:04EF2C0001000000E0
:040000052000E5559D
:00000001FF
